2407000OTP banka d.d.                                    52508873833100020240503                                                                                                                                                                                                                                                                                                                                                                                                                                                                                                                                                                                                                                                                                                                                                                                                                                                                                                                                                     900
2407000OTPVHR2X   HR2924070001100072069EURENUKO                                                                 SLAVONSKI BROD                     97552909572399529450420012023110200011000                                                                                                                                                                                                                                                                                                                                                                                                                                                                                                                                                                                                                                                                                                                                                                                                                                         903
10HR5324070001024070003             OTP banka d.d.                                                        DOMOVINSKOG RATA 61                SPLIT                              2023110220231102   000000000000000+000000000000000+000000000000930HR00371659-0001-2023      HR17500410150405          33  Naknade od 01.10.2023 do 31.10.2023                                                                                                                                                   IPR 347658067                                                                                                                                                                                                                                                                                                                                                                                                                                                                                                                        905
HR2924070001100072069EURENUKO                                                                 04200020231102        +000000000133712+000000000000000        000000000000000000000000000000+000000000000000+000000000000930+000000000000000+0000000001327820001000001                                                                                                                                                                                                                                                                                                                                                                                                                                                                                                                                                                                                                                                                                                                                                                 907
2407000OTPVHR2X   HR2924070001100072069EURENUKO                                                                 SLAVONSKI BROD                     97552909572399529450430012023110800021000                                                                                                                                                                                                                                                                                                                                                                                                                                                                                                                                                                                                                                                                                                                                                                                                                                         903
20HR0923600003248347363             TOMISLAV ŠTIVIÆ                                                       NASELJE SLAVONIJA I 3/2            35000 SLAVONSKI BROD, SLAVONSKI BRO2023110820231108   000000000000000+000000000000000+000000000001593HR99                      HR0343-205-2022028        33  oèitanje internih vodomjera razdoblje 202103-202202                                                                                                                                   ZIN 348593981                                                                                                                                                                                                                                                                                                                                                                                                                                                                                                                        905
HR2924070001100072069EURENUKO                                                                 04300020231108        +000000000132782+000000000000000        000000000000000000000000000000+000000000000000+000000000000000+000000000001593+0000000001343750002000001                                                                                                                                                                                                                                                                                                                                                                                                                                                                                                                                                                                                                                                                                                                                                                 907
2407000OTPVHR2X   HR2924070001100072069EURENUKO                                                                 SLAVONSKI BROD                     97552909572399529450440012023112100031000                                                                                                                                                                                                                                                                                                                                                                                                                                                                                                                                                                                                                                                                                                                                                                                                                                         903
20HR4910010051739612002             Porez na dohodak i prirez porezu na dohodak                           SLAVONSKI BROD                     0                                  2023112120231121   000000000000000+000000000000000+000000000047789HR681619-57239952945      HR99                      33  povrat preplaæenih sredstava                                                                                                                                                          ZIN 350799925                                                                                                                                                                                                                                                                                                                                                                                                                                                                                                                        905
HR2924070001100072069EURENUKO                                                                 04400020231121        +000000000134375+000000000000000        000000000000000000000000000000+000000000000000+000000000000000+000000000047789+0000000001821640003000001                                                                                                                                                                                                                                                                                                                                                                                                                                                                                                                                                                                                                                                                                                                                                                 907
2407000OTPVHR2X   HR2924070001100072069EURENUKO                                                                 SLAVONSKI BROD                     97552909572399529450450012023120100041000                                                                                                                                                                                                                                                                                                                                                                                                                                                                                                                                                                                                                                                                                                                                                                                                                                         903
10HR5324070001024070003             OTP banka d.d.                                                        DOMOVINSKOG RATA 61                SPLIT                              2023120120231201   000000000000000+000000000000000+000000000000962HR00414219-0001-2023      HR17500410150405          33  Naknade od 01.11.2023 do 30.11.2023                                                                                                                                                   IPR 352063656                                                                                                                                                                                                                                                                                                                                                                                                                                                                                                                        905
HR2924070001100072069EURENUKO                                                                 04500020231201        +000000000182164+000000000000000        000000000000000000000000000000+000000000000000+000000000000962+000000000000000+0000000001812020004000001                                                                                                                                                                                                                                                                                                                                                                                                                                                                                                                                                                                                                                                                                                                                                                 907
2407000OTPVHR2X   HR2924070001100072069EURENUKO                                                                 SLAVONSKI BROD                     97552909572399529450460012023121200051000                                                                                                                                                                                                                                                                                                                                                                                                                                                                                                                                                                                                                                                                                                                                                                                                                                         903
20HR2923600003251427723             MELITA MILENKOVIÆ                                                     MATIJE MESIÆA 66                   35000 SLAVONSKI BROD, SLAVONSKI BRO2023121220231212   000000000000000+000000000000000+000000000023500HR99                      HR002023-12               33  Plaæanje po raèunu - vodomjer I ERM                                                                                                                                                   ZIN 353824597                                                                                                                                                                                                                                                                                                                                                                                                                                                                                                                        905
HR2924070001100072069EURENUKO                                                                 04600020231212        +000000000181202+000000000000000        000000000000000000000000000000+000000000000000+000000000000000+000000000023500+0000000002047020005000001                                                                                                                                                                                                                                                                                                                                                                                                                                                                                                                                                                                                                                                                                                                                                                 907
2407000OTPVHR2X   HR2924070001100072069EURENUKO                                                                 SLAVONSKI BROD                     97552909572399529450470012023121800061000                                                                                                                                                                                                                                                                                                                                                                                                                                                                                                                                                                                                                                                                                                                                                                                                                                         903
20HR6423400091000000013             KATANIÆ ZVONIMIR                                                      RADNIÈKA CESTA 50                  ZAGREB                             2023121820231218   000000000000000+000000000000000+000000000001593HR0541874-075938-106691   HR0386-205-2022028        33  oèitan je internih vodom jera razdo                                                                                                                                                   ZIN 355068390                                                                                                                                                                                                                                                                                                                                                                                                                                                                                                                        905
HR2924070001100072069EURENUKO                                                                 04700020231218        +000000000204702+000000000000000        000000000000000000000000000000+000000000000000+000000000000000+000000000001593+0000000002062950006000001                                                                                                                                                                                                                                                                                                                                                                                                                                                                                                                                                                                                                                                                                                                                                                 907
2407000OTPVHR2X   HR2924070001100072069EURENUKO                                                                 SLAVONSKI BROD                     97552909572399529450480012023121900071000                                                                                                                                                                                                                                                                                                                                                                                                                                                                                                                                                                                                                                                                                                                                                                                                                                         903
20HR0841240031320004036             SZP 108. BRIGADE ZNG 4, SLAVONSKI BROD - BRUNO MARTIÆ, DOMAR          TOME SKALICE 9                     SLAVONSKI BROD                     2023121920231219   000000000000000+000000000000000+000000000007171HR99                      HR002023-028              33  RN. 028/1/23                                                                                                                                                                          ZIN 355241449                                                                                                                                                                                                                                                                                                                                                                                                                                                                                                                        905
HR2924070001100072069EURENUKO                                                                 04800020231219        +000000000206295+000000000000000        000000000000000000000000000000+000000000000000+000000000000000+000000000007171+0000000002134660007000001                                                                                                                                                                                                                                                                                                                                                                                                                                                                                                                                                                                                                                                                                                                                                                 907
2407000OTPVHR2X   HR2924070001100072069EURENUKO                                                                 SLAVONSKI BROD                     97552909572399529450490012023122000081000                                                                                                                                                                                                                                                                                                                                                                                                                                                                                                                                                                                                                                                                                                                                                                                                                                         903
20HR6441240031320000506             ÐURO ÐAKOVIÆ STAN društvo s ograniè                                   ULICA 108 BRIGADE ZNG 42           Slavonski                          2023122020231220   000000000000000+000000000000000+000000000009827HR0519-2397-564           HR002023-027              33  ocitanje vodomjera                                                                                                                                                                    ZIN 355384122                                                                                                                                                                                                                                                                                                                                                                                                                                                                                                                        905
20HR2741240031320000299             ÐURO ÐAKOVIÆ STAN društvo s ograniè                                   ULICA 108 BRIGADE ZNG 42           Slavonski                          2023122020231220   000000000000000+000000000000000+000000000012218HR0519-2361-564           HR00026-1-23              33  ocitanje vodomjera                                                                                                                                                                    ZIN 355384123                                                                                                                                                                                                                                                                                                                                                                                                                                                                                                                        905
20HR6523400091310344317             SZP I.GUNDULIÆA 3                                                     Ul. 108 brigade ZNG 42             Slavonski                          2023122020231220   000000000000000+000000000000000+000000000004781HR0519-2345-564           HR002023-029              33  oèitanje vodomjera                                                                                                                                                                    ZIN 355389715                                                                                                                                                                                                                                                                                                                                                                                                                                                                                                                        905
HR2924070001100072069EURENUKO                                                                 04900020231220        +000000000213466+000000000000000        000000000000000000000000000000+000000000000000+000000000000000+000000000026826+0000000002402920008000003                                                                                                                                                                                                                                                                                                                                                                                                                                                                                                                                                                                                                                                                                                                                                                 907
2407000OTPVHR2X   HR2924070001100072069EURENUKO                                                                 SLAVONSKI BROD                     97552909572399529450500012023122700091000                                                                                                                                                                                                                                                                                                                                                                                                                                                                                                                                                                                                                                                                                                                                                                                                                                         903
10HR5324070001024070003             OTP banka d.d.                                                        DOMOVINSKOG RATA 61                SPLIT                              2023122720231227   000000000000000+000000000000000+000000000000645HR00356210401-01          HR175001114711-27122023   33  POS KUPOVINA/23.12/EUR/6,45TDA BROD DOO-KNJIZARA,SLAVONSKI BROBr.kart.xx8270                                                                                                          IPR 356210401                                                                                                                                                                                                                                                                                                                                                                                                                                                                                                                        905
HR2924070001100072069EURENUKO                                                                 05000020231227        +000000000240292+000000000000000        000000000000000000000000000000+000000000000000+000000000000645+000000000000000+0000000002396470009000001                                                                                                                                                                                                                                                                                                                                                                                                                                                                                                                                                                                                                                                                                                                                                                 907
2407000OTPVHR2X   HR2924070001100072069EURENUKO                                                                 SLAVONSKI BROD                     97552909572399529450510012023122900101000                                                                                                                                                                                                                                                                                                                                                                                                                                                                                                                                                                                                                                                                                                                                                                                                                                         903
10HR2523900011300070827             ZATVORENI MIROVINSKI FOND                                                                                                                   2023122920231229   000000000000000+000000000000000+000000000050437HR99                      HR009012424               33  3.MIROVINSKI STUP                                                                                                                                                                     ZOU 356438010                                                                                                                                                                                                                                                                                                                                                                                                                                                                                                                        905
10HR9124020063204984605             Ranko Simiæ                                                                                                                                 2023122920231229   000000000000000+000000000000000+000000000036500HR99                      HR99                      33  NAGRADA                                                                                                                                                                               ZOU 356438012                                                                                                                                                                                                                                                                                                                                                                                                                                                                                                                        905
10HR9124020063204984605             Ranko Simiæ                                                                                                                                 2023122920231229   000000000000000+000000000000000+000000000079644HR99                      HR99                      33  PAUŠAL PREHRANE                                                                                                                                                                       ZOU 356438011                                                                                                                                                                                                                                                                                                                                                                                                                                                                                                                        905
HR2924070001100072069EURENUKO                                                                 05100020231229        +000000000239647+000000000000000        000000000000000000000000000000+000000000000000+000000000166581+000000000000000+0000000000730660010000003                                                                                                                                                                                                                                                                                                                                                                                                                                                                                                                                                                                                                                                                                                                                                                 907
2407000OTPVHR2X   HR2924070001100072069EURENUKO                                                                 SLAVONSKI BROD                     97552909572399529450520012023123000111000                                                                                                                                                                                                                                                                                                                                                                                                                                                                                                                                                                                                                                                                                                                                                                                                                                         903
10HR5324070001024070003             OTP banka d.d.                                                        DOMOVINSKOG RATA 61                SPLIT                              2023123020231230   000000000000000+000000000000000+000000000012000HR00356591244-01          HR175001114711-30122023   33  POS KUPOVINA/29.12/EUR/120,00KAUFLAND 2830,SLAVONSKI BROBr.kart.xx8270                                                                                                                IPR 356591244                                                                                                                                                                                                                                                                                                                                                                                                                                                                                                                        905
HR2924070001100072069EURENUKO                                                                 05200020231230        +000000000073066+000000000000000        000000000000000000000000000000+000000000000000+000000000012000+000000000000000+0000000000610660011000001                                                                                                                                                                                                                                                                                                                                                                                                                                                                                                                                                                                                                                                                                                                                                                 907
2024050300011000039                                                                                                                                                                                                                                                                                                                                                                                                                                                                                                                                                                                                                                                                                                                                                                                                                                                                                                                                                                                                                  909
                                                                                                                                                                                                                                                                                                                                                                                                                                                                                                                                                                                                                                                                                                                                                                                                                                                                                                                                                                                                                                     999
