2407000OTP banka d.d.                                    52508873833100020240503                                                                                                                                                                                                                                                                                                                                                                                                                                                                                                                                                                                                                                                                                                                                                                                                                                                                                                                                                     900
2407000OTPVHR2X   HR2924070001100072069HRKENUKO                                                                 SLAVONSKI BROD                     97552909572399529450440012022090100011000                                                                                                                                                                                                                                                                                                                                                                                                                                                                                                                                                                                                                                                                                                                                                                                                                                         903
10HR5324070001024070003             OTP banka d.d.                                                        DOMOVINSKOG RATA 61                SPLIT                              2022090120220901   000000000000000+000000000000000+000000000009580HR00268989-0001-2022      HR17500410150405          33  Naknade od 01.08.2022 do 31.08.2022                                                                                                                                                   IPR 286952481                                                                                                                                                                                                                                                                                                                                                                                                                                                                                                                        905
HR2924070001100072069HRKENUKO                                                                 04400020220901        +000000000504274+000000000000000        000000000000000000000000000000+000000000000000+000000000009580+000000000000000+0000000004946940001000001                                                                                                                                                                                                                                                                                                                                                                                                                                                                                                                                                                                                                                                                                                                                                                 907
2407000OTPVHR2X   HR2924070001100072069HRKENUKO                                                                 SLAVONSKI BROD                     97552909572399529450450012022091300021000                                                                                                                                                                                                                                                                                                                                                                                                                                                                                                                                                                                                                                                                                                                                                                                                                                         903
20HR0323600003221556168             ANKA KATANIÆ                                                          HRVATSKIH DOBROVOLJACA 31          35000 SLAVONSKI BROD, SLAVONSKI BRO2022091320220913   000000000000000+000000000000000+000000000012000HR99                      HR0386-205-2021021        33  oèitanje internih vodomjera  202003-202102                                                                                                                                            ZIN 288648240                                                                                                                                                                                                                                                                                                                                                                                                                                                                                                                        905
HR2924070001100072069HRKENUKO                                                                 04500020220913        +000000000494694+000000000000000        000000000000000000000000000000+000000000000000+000000000000000+000000000012000+0000000005066940002000001                                                                                                                                                                                                                                                                                                                                                                                                                                                                                                                                                                                                                                                                                                                                                                 907
2407000OTPVHR2X   HR2924070001100072069HRKENUKO                                                                 SLAVONSKI BROD                     97552909572399529450460012022100300031000                                                                                                                                                                                                                                                                                                                                                                                                                                                                                                                                                                                                                                                                                                                                                                                                                                         903
10HR5324070001024070003             OTP banka d.d.                                                        DOMOVINSKOG RATA 61                SPLIT                              2022100320221003   000000000000000+000000000000000+000000000007120HR00308238-0001-2022      HR17500410150405          33  Naknade od 01.09.2022 do 30.09.2022                                                                                                                                                   IPR 291310743                                                                                                                                                                                                                                                                                                                                                                                                                                                                                                                        905
HR2924070001100072069HRKENUKO                                                                 04600020221003        +000000000506694+000000000000000        000000000000000000000000000000+000000000000000+000000000007120+000000000000000+0000000004995740003000001                                                                                                                                                                                                                                                                                                                                                                                                                                                                                                                                                                                                                                                                                                                                                                 907
2407000OTPVHR2X   HR2924070001100072069HRKENUKO                                                                 SLAVONSKI BROD                     97552909572399529450470012022100400041000                                                                                                                                                                                                                                                                                                                                                                                                                                                                                                                                                                                                                                                                                                                                                                                                                                         903
20HR0923600003248347363             TOMISLAV ŠTIVIÆ                                                       NASELJE SLAVONIJA I 3/2            35000 SLAVONSKI BROD, SLAVONSKI BRO2022100420221004   000000000000000+000000000000000+000000000012000HR99                      HR0343-205-2021021        33  oèitanje internih vodomjera                                                                                                                                                           ZIN 291558792                                                                                                                                                                                                                                                                                                                                                                                                                                                                                                                        905
HR2924070001100072069HRKENUKO                                                                 04700020221004        +000000000499574+000000000000000        000000000000000000000000000000+000000000000000+000000000000000+000000000012000+0000000005115740004000001                                                                                                                                                                                                                                                                                                                                                                                                                                                                                                                                                                                                                                                                                                                                                                 907
2407000OTPVHR2X   HR2924070001100072069HRKENUKO                                                                 SLAVONSKI BROD                     97552909572399529450480012022102400051000                                                                                                                                                                                                                                                                                                                                                                                                                                                                                                                                                                                                                                                                                                                                                                                                                                         903
20HR5423900010735000006             ZDRAVKO SEDLO                                                         SLAVONSKI BROD SLAVONIJA I ZGRADA 2ULAZ                               2022102420221024   000000000000000+000000000000000+000000000200000HR99                      HR002022-059              33  vodomjer                                                                                                                                                                              ZIN 294429815                                                                                                                                                                                                                                                                                                                                                                                                                                                                                                                        905
20HR6423400091000000013             ANÐELKA GRUBIŠIÆ                                                      RADNIÈKA CESTA 50                  ZAGREB                             2022102420221024   000000000000000+000000000000000+000000000022000HR0541874-075938-497721   HR0394-205-2022095        33  oèitan je internih vodom jera razdo                                                                                                                                                   ZIN 294514451                                                                                                                                                                                                                                                                                                                                                                                                                                                                                                                        905
HR2924070001100072069HRKENUKO                                                                 04800020221024        +000000000511574+000000000000000        000000000000000000000000000000+000000000000000+000000000000000+000000000222000+0000000007335740005000002                                                                                                                                                                                                                                                                                                                                                                                                                                                                                                                                                                                                                                                                                                                                                                 907
2407000OTPVHR2X   HR2924070001100072069HRKENUKO                                                                 SLAVONSKI BROD                     97552909572399529450490012022102500061000                                                                                                                                                                                                                                                                                                                                                                                                                                                                                                                                                                                                                                                                                                                                                                                                                                         903
20HR8023900010735101000             TOMISLAV KVESIÆ                                                       SLAV. BROD NAS. SLAVONIJA I 3/6                                       2022102520221025   000000000000000+000000000000000+000000000012000HR99                      HR03124-205-2021110       33  oèitanje internih vodomjera                                                                                                                                                           ZIN 294596498                                                                                                                                                                                                                                                                                                                                                                                                                                                                                                                        905
HR2924070001100072069HRKENUKO                                                                 04900020221025        +000000000733574+000000000000000        000000000000000000000000000000+000000000000000+000000000000000+000000000012000+0000000007455740006000001                                                                                                                                                                                                                                                                                                                                                                                                                                                                                                                                                                                                                                                                                                                                                                 907
2407000OTPVHR2X   HR2924070001100072069HRKENUKO                                                                 SLAVONSKI BROD                     97552909572399529450500012022102600071000                                                                                                                                                                                                                                                                                                                                                                                                                                                                                                                                                                                                                                                                                                                                                                                                                                         903
20HR8023900010735101000             IVAN PRINCIP                                                          SLAV. BROD NAS. SLAVONIJA I 3/6                                       2022102620221026   000000000000000+000000000000000+000000000006000HR99                      HR03140-205-2021110       33  plaæanje vodomjera                                                                                                                                                                    ZIN 294732013                                                                                                                                                                                                                                                                                                                                                                                                                                                                                                                        905
HR2924070001100072069HRKENUKO                                                                 05000020221026        +000000000745574+000000000000000        000000000000000000000000000000+000000000000000+000000000000000+000000000006000+0000000007515740007000001                                                                                                                                                                                                                                                                                                                                                                                                                                                                                                                                                                                                                                                                                                                                                                 907
2407000OTPVHR2X   HR2924070001100072069HRKENUKO                                                                 SLAVONSKI BROD                     97552909572399529450510012022102700081000                                                                                                                                                                                                                                                                                                                                                                                                                                                                                                                                                                                                                                                                                                                                                                                                                                         903
20HR8023900010735101000             ZDENKA KNEŽEVIÆ                                                       SLAV. BROD NAS. SLAVONIJA I 3/6                                       2022102720221027   000000000000000+000000000000000+000000000012000HR99                      HR03175-205-2021110       33  OÈIRANJE INTERNIH VODOMJERA                                                                                                                                                           ZIN 294895675                                                                                                                                                                                                                                                                                                                                                                                                                                                                                                                        905
HR2924070001100072069HRKENUKO                                                                 05100020221027        +000000000751574+000000000000000        000000000000000000000000000000+000000000000000+000000000000000+000000000012000+0000000007635740008000001                                                                                                                                                                                                                                                                                                                                                                                                                                                                                                                                                                                                                                                                                                                                                                 907
2407000OTPVHR2X   HR2924070001100072069HRKENUKO                                                                 SLAVONSKI BROD                     97552909572399529450520012022102800091000                                                                                                                                                                                                                                                                                                                                                                                                                                                                                                                                                                                                                                                                                                                                                                                                                                         903
20HR4823600003245655687             MAJA KARLOVIÆ                                                         NASELJE SLAVONIJA I 3/6            35000 SLAVONSKI BROD, SLAVONSKI BRO2022102820221028   000000000000000+000000000000000+000000000012000HR99                      HR03175-205-2020114       33  oèitanje internih vodomjera                                                                                                                                                           ZIN 295016216                                                                                                                                                                                                                                                                                                                                                                                                                                                                                                                        905
HR2924070001100072069HRKENUKO                                                                 05200020221028        +000000000763574+000000000000000        000000000000000000000000000000+000000000000000+000000000000000+000000000012000+0000000007755740009000001                                                                                                                                                                                                                                                                                                                                                                                                                                                                                                                                                                                                                                                                                                                                                                 907
2407000OTPVHR2X   HR2924070001100072069HRKENUKO                                                                 SLAVONSKI BROD                     97552909572399529450530012022103100101000                                                                                                                                                                                                                                                                                                                                                                                                                                                                                                                                                                                                                                                                                                                                                                                                                                         903
10HR9124020063204984605             Ranko Simiæ                                                                                                                                 2022103120221031   000000000000000+000000000000000+000000000180400HR99                      HR99                      33  PN OD 14.10.2022                                                                                                                                                                      ZOU 295138743                                                                                                                                                                                                                                                                                                                                                                                                                                                                                                                        905
HR2924070001100072069HRKENUKO                                                                 05300020221031        +000000000775574+000000000000000        000000000000000000000000000000+000000000000000+000000000180400+000000000000000+0000000005951740010000001                                                                                                                                                                                                                                                                                                                                                                                                                                                                                                                                                                                                                                                                                                                                                                 907
2024050300010000033                                                                                                                                                                                                                                                                                                                                                                                                                                                                                                                                                                                                                                                                                                                                                                                                                                                                                                                                                                                                                  909
                                                                                                                                                                                                                                                                                                                                                                                                                                                                                                                                                                                                                                                                                                                                                                                                                                                                                                                                                                                                                                     999
