2407000OTP banka d.d.                                    52508873833100020240503                                                                                                                                                                                                                                                                                                                                                                                                                                                                                                                                                                                                                                                                                                                                                                                                                                                                                                                                                     900
2407000OTPVHR2X   HR2924070001100072069HRKENUKO                                                                 SLAVONSKI BROD                     97552909572399529450540012022110200011000                                                                                                                                                                                                                                                                                                                                                                                                                                                                                                                                                                                                                                                                                                                                                                                                                                         903
20HR9325000093207358579             JOSIP CAR                                                             SLAVONSKI BROD NASELJE SLAVONIJA I N/A                                2022110220221102   000000000000000+000000000000000+000000000012000HR99                      HR03167-205-20221110      33  Komercijalno plaæanje                                                                                                                                                                 ZIN 295362205                                                                                                                                                                                                                                                                                                                                                                                                                                                                                                                        905
10HR5324070001024070003             OTP banka d.d.                                                        DOMOVINSKOG RATA 61                SPLIT                              2022110220221102   000000000000000+000000000000000+000000000008140HR00347793-0001-2022      HR17500410150405          33  Naknade od 01.10.2022 do 31.10.2022                                                                                                                                                   IPR 295464684                                                                                                                                                                                                                                                                                                                                                                                                                                                                                                                        905
HR2924070001100072069HRKENUKO                                                                 05400020221102        +000000000595174+000000000000000        000000000000000000000000000000+000000000000000+000000000008140+000000000012000+0000000005990340001000002                                                                                                                                                                                                                                                                                                                                                                                                                                                                                                                                                                                                                                                                                                                                                                 907
2407000OTPVHR2X   HR2924070001100072069HRKENUKO                                                                 SLAVONSKI BROD                     97552909572399529450550012022111000021000                                                                                                                                                                                                                                                                                                                                                                                                                                                                                                                                                                                                                                                                                                                                                                                                                                         903
20HR0841240031320004036             SZP MILE BUDAKA 23,SLAVONSKI BROD - BRUNO MARTIÆ, DOMAR               TOME SKALICE 9                     SLAVONSKI BROD                     2022111020221110   000000000000000+000000000000000+000000000054000HR99                      HR002022-060              33  RN. 060/1/22                                                                                                                                                                          ZIN 296686414                                                                                                                                                                                                                                                                                                                                                                                                                                                                                                                        905
HR2924070001100072069HRKENUKO                                                                 05500020221110        +000000000599034+000000000000000        000000000000000000000000000000+000000000000000+000000000000000+000000000054000+0000000006530340002000001                                                                                                                                                                                                                                                                                                                                                                                                                                                                                                                                                                                                                                                                                                                                                                 907
2407000OTPVHR2X   HR2924070001100072069HRKENUKO                                                                 SLAVONSKI BROD                     97552909572399529450560012022111400031000                                                                                                                                                                                                                                                                                                                                                                                                                                                                                                                                                                                                                                                                                                                                                                                                                                         903
20HR4323400093212897475             BERNARDA VINKOVIÆ                                                     IVANA GORANA KOVAÈIÆA              SLAVONSKI BROD                     2022111420221114   000000000000000+000000000000000+000000000012000HR0524511-365-000790206908HR031023-205-20220685     33  Rn.68/1/22                                                                                                                                                                            ZIN 296975619                                                                                                                                                                                                                                                                                                                                                                                                                                                                                                                        905
HR2924070001100072069HRKENUKO                                                                 05600020221114        +000000000653034+000000000000000        000000000000000000000000000000+000000000000000+000000000000000+000000000012000+0000000006650340003000001                                                                                                                                                                                                                                                                                                                                                                                                                                                                                                                                                                                                                                                                                                                                                                 907
2407000OTPVHR2X   HR2924070001100072069HRKENUKO                                                                 SLAVONSKI BROD                     97552909572399529450570012022111600041000                                                                                                                                                                                                                                                                                                                                                                                                                                                                                                                                                                                                                                                                                                                                                                                                                                         903
20HR8023900010735101000             MARIO KLJAJIÆ                                                         SLAV. BROD NAS. SLAVONIJA I 3/6                                       2022111620221116   000000000000000+000000000000000+000000000012000HR99                      HR03108-205-2021110       33  OÈIRANJE INTERNIH VODOMJERA                                                                                                                                                           ZIN 297653160                                                                                                                                                                                                                                                                                                                                                                                                                                                                                                                        905
20HR4323400093206005819             LUKA VUKSANOVIÆ                                                       NASELJE SLAVONIJA I                SLAVONSKI BROD                     2022111620221116   000000000000000+000000000000000+000000000012000HR99                      HR03418-205-20220693      33  Ocitanje vodomjera 202103-202208                                                                                                                                                      ZIN 297723730                                                                                                                                                                                                                                                                                                                                                                                                                                                                                                                        905
20HR6441240031320000506             ÐURO ÐAKOVIÆ STAN društvo s ograniè                                   ULICA 108 BRIGADE ZNG 42           Slavonski                          2022111620221116   000000000000000+000000000000000+000000000074000HR0519-2278-564           HR002022-061              33  ocitanje vodomjera                                                                                                                                                                    ZIN 297787727                                                                                                                                                                                                                                                                                                                                                                                                                                                                                                                        905
20HR2741240031320000299             ÐURO ÐAKOVIÆ STAN društvo s ograniè                                   ULICA 108 BRIGADE ZNG 42           Slavonski                          2022111620221116   000000000000000+000000000000000+000000000046000HR0519-2245-564           HR002022-062              33  ocitanje vodomjera                                                                                                                                                                    ZIN 297787728                                                                                                                                                                                                                                                                                                                                                                                                                                                                                                                        905
20HR6523400091310344317             SZP I.GUNDULIÆA 3                                                     Ul. 108 brigade ZNG 42             Slavonski                          2022111620221116   000000000000000+000000000000000+000000000033000HR0519-2239-564           HR00064-1-22              33  oèitanje vodomjera                                                                                                                                                                    ZIN 297789680                                                                                                                                                                                                                                                                                                                                                                                                                                                                                                                        905
20HR7823400091310368721             SZP F.SUPILA 24                                                       Ul. 108 brigade ZNG 42             Slavonski                          2022111620221116   000000000000000+000000000000000+000000000048000HR0519-2229-564           HR00063-1-22              33  oèitanje vodomjera                                                                                                                                                                    ZIN 297789682                                                                                                                                                                                                                                                                                                                                                                                                                                                                                                                        905
HR2924070001100072069HRKENUKO                                                                 05700020221116        +000000000665034+000000000000000        000000000000000000000000000000+000000000000000+000000000000000+000000000225000+0000000008900340004000006                                                                                                                                                                                                                                                                                                                                                                                                                                                                                                                                                                                                                                                                                                                                                                 907
2407000OTPVHR2X   HR2924070001100072069HRKENUKO                                                                 SLAVONSKI BROD                     97552909572399529450580012022120100051000                                                                                                                                                                                                                                                                                                                                                                                                                                                                                                                                                                                                                                                                                                                                                                                                                                         903
10HR5324070001024070003             OTP banka d.d.                                                        DOMOVINSKOG RATA 61                SPLIT                              2022120120221201   000000000000000+000000000000000+000000000008090HR00387561-0001-2022      HR17500410150405          33  Naknade od 01.11.2022 do 30.11.2022                                                                                                                                                   IPR 299560867                                                                                                                                                                                                                                                                                                                                                                                                                                                                                                                        905
HR2924070001100072069HRKENUKO                                                                 05800020221201        +000000000890034+000000000000000        000000000000000000000000000000+000000000000000+000000000008090+000000000000000+0000000008819440005000001                                                                                                                                                                                                                                                                                                                                                                                                                                                                                                                                                                                                                                                                                                                                                                 907
2407000OTPVHR2X   HR2924070001100072069HRKENUKO                                                                 SLAVONSKI BROD                     97552909572399529450590012022120600061000                                                                                                                                                                                                                                                                                                                                                                                                                                                                                                                                                                                                                                                                                                                                                                                                                                         903
20HR8441240033220008889             ANTUN OREŠIÆ                                                          NASELJE ANDRIJE HEBRANGA           35000 Slavonski Brod               2022120620221206   000000000000000+000000000000000+000000000012000HR99                      HR03760-205-20220707      33  oèitovanje 202110-202209                                                                                                                                                              ZIN 300085007                                                                                                                                                                                                                                                                                                                                                                                                                                                                                                                        905
HR2924070001100072069HRKENUKO                                                                 05900020221206        +000000000881944+000000000000000        000000000000000000000000000000+000000000000000+000000000000000+000000000012000+0000000008939440006000001                                                                                                                                                                                                                                                                                                                                                                                                                                                                                                                                                                                                                                                                                                                                                                 907
2407000OTPVHR2X   HR2924070001100072069HRKENUKO                                                                 SLAVONSKI BROD                     97552909572399529450600012022120700071000                                                                                                                                                                                                                                                                                                                                                                                                                                                                                                                                                                                                                                                                                                                                                                                                                                         903
20HR5423900010735000006             ANTE OREÈ                                                             DOMOBRANSKA 9                                                         2022120720221207   000000000000000+000000000000000+000000000006000HR99                      HR03531-205-20220863      33  oè. internih vodomjera 202102-202201                                                                                                                                                  ZIN 300246925                                                                                                                                                                                                                                                                                                                                                                                                                                                                                                                        905
HR2924070001100072069HRKENUKO                                                                 06000020221207        +000000000893944+000000000000000        000000000000000000000000000000+000000000000000+000000000000000+000000000006000+0000000008999440007000001                                                                                                                                                                                                                                                                                                                                                                                                                                                                                                                                                                                                                                                                                                                                                                 907
2407000OTPVHR2X   HR2924070001100072069HRKENUKO                                                                 SLAVONSKI BROD                     97552909572399529450610012022120800081000                                                                                                                                                                                                                                                                                                                                                                                                                                                                                                                                                                                                                                                                                                                                                                                                                                         903
20HR3923900010735106006             MARIJA KLADARIÆ                                                       35000 SLAVONSKI BROD FRANA SUPILA 22                                  2022120820221208   000000000000000+000000000000000+000000000006000HR99                      HR03507-205-20220731      33  OÈITANJE INTERNIH VODOMJERA                                                                                                                                                           ZIN 300429758                                                                                                                                                                                                                                                                                                                                                                                                                                                                                                                        905
20HR3923900010735106006             BOGOMIR ÈONKA                                                         35000 SLAVONSKI BROD FRANA SUPILA 22                                  2022120820221208   000000000000000+000000000000000+000000000006000HR99                      HR03523-205-20220758      33  OÈITANJE INTERNIH VODOMJERA                                                                                                                                                           ZIN 300429773                                                                                                                                                                                                                                                                                                                                                                                                                                                                                                                        905
20HR5423900010735000006             JOSIP ERGOTIÆ                                                         DOMOBRANSKA 9                                                         2022120820221208   000000000000000+000000000000000+000000000006000HR99                      HR03540-205-20220871      33  oèitanje                                                                                                                                                                              ZIN 300442559                                                                                                                                                                                                                                                                                                                                                                                                                                                                                                                        905
20HR6423400091000000013             MARIJA STANIŠIÆ                                                       RADNIÈKA CESTA 50                  ZAGREB                             2022120820221208   000000000000000+000000000000000+000000000006000HR0541874-075938-548601   HR03515-205-20220740      33  oèitan je internih vodom jera razdo                                                                                                                                                   ZIN 300487490                                                                                                                                                                                                                                                                                                                                                                                                                                                                                                                        905
HR2924070001100072069HRKENUKO                                                                 06100020221208        +000000000899944+000000000000000        000000000000000000000000000000+000000000000000+000000000000000+000000000024000+0000000009239440008000004                                                                                                                                                                                                                                                                                                                                                                                                                                                                                                                                                                                                                                                                                                                                                                 907
2407000OTPVHR2X   HR2924070001100072069HRKENUKO                                                                 SLAVONSKI BROD                     97552909572399529450620012022120900091000                                                                                                                                                                                                                                                                                                                                                                                                                                                                                                                                                                                                                                                                                                                                                                                                                                         903
20HR6423400091000000013             IVAN FILAJDIÆ                                                         RADNIÈKA CESTA 50                  ZAGREB                             2022120920221209   000000000000000+000000000000000+000000000006000HR0541874-075938-922309   HR03558-205-20220880      33  oèitan je internih vodom jera razdo                                                                                                                                                   ZIN 300587937                                                                                                                                                                                                                                                                                                                                                                                                                                                                                                                        905
HR2924070001100072069HRKENUKO                                                                 06200020221209        +000000000923944+000000000000000        000000000000000000000000000000+000000000000000+000000000000000+000000000006000+0000000009299440009000001                                                                                                                                                                                                                                                                                                                                                                                                                                                                                                                                                                                                                                                                                                                                                                 907
2407000OTPVHR2X   HR2924070001100072069HRKENUKO                                                                 SLAVONSKI BROD                     97552909572399529450630012022121200101000                                                                                                                                                                                                                                                                                                                                                                                                                                                                                                                                                                                                                                                                                                                                                                                                                                         903
20HR8023900010735101000             RABIJA SALÈINOVIÆ                                                     35000 SLAVONSKI BROD DOMOBRANSKA 12                                   2022121220221212   000000000000000+000000000000000+000000000006000HR99                      HR03957-205-20221045      33  oèitanje int vodomjera                                                                                                                                                                ZIN 300852023                                                                                                                                                                                                                                                                                                                                                                                                                                                                                                                        905
20HR8023900010735101000             RABIJA SALÈINOVIÆ                                                     35000 SLAVONSKI BROD DOMOBRANSKA 12                                   2022121220221212   000000000000000+000000000000000+000000000006000HR99                      HR03973-205-20220952      33  oèitanje int vod                                                                                                                                                                      ZIN 300852064                                                                                                                                                                                                                                                                                                                                                                                                                                                                                                                        905
20HR8023900010735101000             IVANKA JAILOVIÆ                                                       35000 SLAVONSKI BROD DOMOBRANSKA 9                                    2022121220221212   000000000000000+000000000000000+000000000006000HR99                      HR03736-205-20220910      33  OÈITANJE INT VOD                                                                                                                                                                      ZIN 300852198                                                                                                                                                                                                                                                                                                                                                                                                                                                                                                                        905
20HR5423900010735000006             NADA PAVLOVIÆ                                                         SB BOROVSKA 2                                                         2022121220221212   000000000000000+000000000000000+000000000006000HR99                      HR03868-205-20220855      33  oèitanje internih vodomjera 202103-202202                                                                                                                                             ZIN 300855644                                                                                                                                                                                                                                                                                                                                                                                                                                                                                                                        905
20HR5423900010735000006             MILICA MIRKOVIÆ                                                       SB DOMOBRANSKA 12                                                     2022121220221212   000000000000000+000000000000000+000000000006000HR99                      HR03930-205-20221029      33  uplata rn                                                                                                                                                                             ZIN 300856405                                                                                                                                                                                                                                                                                                                                                                                                                                                                                                                        905
20HR5423900010735000006             DAVORKA VIDAKOVIÆ                                                     35000 SLAVONSKI BROD VUKOVARSKA 9                                     2022121220221212   000000000000000+000000000000000+000000000012000HR99                      HR03817-205-20220847      33  oèit inter vod                                                                                                                                                                        ZIN 301037500                                                                                                                                                                                                                                                                                                                                                                                                                                                                                                                        905
HR2924070001100072069HRKENUKO                                                                 06300020221212        +000000000929944+000000000000000        000000000000000000000000000000+000000000000000+000000000000000+000000000042000+0000000009719440010000006                                                                                                                                                                                                                                                                                                                                                                                                                                                                                                                                                                                                                                                                                                                                                                 907
2407000OTPVHR2X   HR2924070001100072069HRKENUKO                                                                 SLAVONSKI BROD                     97552909572399529450640012022121400111000                                                                                                                                                                                                                                                                                                                                                                                                                                                                                                                                                                                                                                                                                                                                                                                                                                         903
20HR7323400093230566649             TENA SAVIÆ                                                            LIÈKA                              SLAVONSKI BROD                     2022121420221214   000000000000000+000000000000000+000000000006000HR0524511-365-000678971312HR031007-205-20220987     33  Oèitanje internih vodomjera za razdoblje 202102-202201                                                                                                                                ZIN 301310326                                                                                                                                                                                                                                                                                                                                                                                                                                                                                                                        905
20HR5423900010735000006             SONJA BEŠVIR                                                          35000 SLAVONSKI BROD DOMOBRANSKA 12                                   2022121420221214   000000000000000+000000000000000+000000000006000HR99                      HR03914-205-20221002      33  oèitanje internih vodomjera 202103-202202                                                                                                                                             ZIN 301338357                                                                                                                                                                                                                                                                                                                                                                                                                                                                                                                        905
HR2924070001100072069HRKENUKO                                                                 06400020221214        +000000000971944+000000000000000        000000000000000000000000000000+000000000000000+000000000000000+000000000012000+0000000009839440011000002                                                                                                                                                                                                                                                                                                                                                                                                                                                                                                                                                                                                                                                                                                                                                                 907
2407000OTPVHR2X   HR2924070001100072069HRKENUKO                                                                 SLAVONSKI BROD                     97552909572399529450650012022121500121000                                                                                                                                                                                                                                                                                                                                                                                                                                                                                                                                                                                                                                                                                                                                                                                                                                         903
20HR6423400091000000013             MARIJA FERIÆ                                                          RADNIÈKA CESTA 50                  ZAGREB                             2022121520221215   000000000000000+000000000000000+000000000006000HR0541874-075938-870570   HR03574-205-20220901      33  oèitan je internih vodom jera razdo                                                                                                                                                   ZIN 301728780                                                                                                                                                                                                                                                                                                                                                                                                                                                                                                                        905
20HR6423400091000000013             ILIJA BARIŠIÆ                                                         RADNIÈKA CESTA 50                  ZAGREB                             2022121520221215   000000000000000+000000000000000+000000000006000HR0541874-075938-876839   HR03795-205-20220766      33  oèitan je internih vodom jera razdo                                                                                                                                                   ZIN 301728951                                                                                                                                                                                                                                                                                                                                                                                                                                                                                                                        905
20HR8023900010735101000             TAIBA SKOPLJAK                                                        35000 SLAVONSKI BROD NASELJE SLAVONIJA I - ZGRADA 3 ULAZ              2022121520221215   000000000000000+000000000000000+000000000012000HR99                      HR03248-205-20220790      33  oèitanje in vod                                                                                                                                                                       ZIN 301768017                                                                                                                                                                                                                                                                                                                                                                                                                                                                                                                        905
HR2924070001100072069HRKENUKO                                                                 06500020221215        +000000000983944+000000000000000        000000000000000000000000000000+000000000000000+000000000000000+000000000024000+0000000010079440012000003                                                                                                                                                                                                                                                                                                                                                                                                                                                                                                                                                                                                                                                                                                                                                                 907
2407000OTPVHR2X   HR2924070001100072069HRKENUKO                                                                 SLAVONSKI BROD                     97552909572399529450660012022121600131000                                                                                                                                                                                                                                                                                                                                                                                                                                                                                                                                                                                                                                                                                                                                                                                                                                         903
20HR6423400091000000013             SNJEŽANA KATAVIÆ                                                      RADNIÈKA CESTA 50                  ZAGREB                             2022121620221216   000000000000000+000000000000000+000000000012000HR0541874-075938-267566   HR03213-205-20220782      33  oèitan je internih vodom jera razdo                                                                                                                                                   ZIN 301975727                                                                                                                                                                                                                                                                                                                                                                                                                                                                                                                        905
20HR6423400091000000013             ANÐELKA REHLICK1                                                      RADNIÈKA CESTA 50                  ZAGREB                             2022121620221216   000000000000000+000000000000000+000000000006000HR0541874-075938-653269   HR031015-205-20220995     33  oèitan je internih vodom jera razdo                                                                                                                                                   ZIN 302032898                                                                                                                                                                                                                                                                                                                                                                                                                                                                                                                        905
20HR6123400093218586686             ROMAN RAŠIÆ                                                           NASELJE SLAVONIJA I                SLAVONSKI BROD                     2022121620221216   000000000000000+000000000000000+000000000006000HR0524511-365-000803904717HR03850-205-20220820      33  Oèitanje internih vodomjera razdoblje 202101-202112                                                                                                                                   ZIN 302033217                                                                                                                                                                                                                                                                                                                                                                                                                                                                                                                        905
HR2924070001100072069HRKENUKO                                                                 06600020221216        +000000001007944+000000000000000        000000000000000000000000000000+000000000000000+000000000000000+000000000024000+0000000010319440013000003                                                                                                                                                                                                                                                                                                                                                                                                                                                                                                                                                                                                                                                                                                                                                                 907
2407000OTPVHR2X   HR2924070001100072069HRKENUKO                                                                 SLAVONSKI BROD                     97552909572399529450670012022121900141000                                                                                                                                                                                                                                                                                                                                                                                                                                                                                                                                                                                                                                                                                                                                                                                                                                         903
20HR8023900010735101000             IVICA TOT                                                             35000 SLAVONSKI BROD DOMOBRANSKA 12                                   2022121920221219   000000000000000+000000000000000+000000000006000HR99                      HR03965-205-20221053      33  OÈITANJE INT VOD                                                                                                                                                                      ZIN 302212364                                                                                                                                                                                                                                                                                                                                                                                                                                                                                                                        905
20HR6423400091000000013             MljO PEŠlÆ                                                            RADNIÈKA CESTA 50                  ZAGREB                             2022121920221219   000000000000000+000000000000000+000000000006000HR0541874-075938-378645   HR03485-205-20220715      33  oèitan je internih vodom jera razdo                                                                                                                                                   ZIN 302304165                                                                                                                                                                                                                                                                                                                                                                                                                                                                                                                        905
20HR5423900010735000006             JASNA RAHIJA                                                          35000 SLAVONSKI BROD DOMOBRANSKA 12                                   2022121920221219   000000000000000+000000000000000+000000000006000HR99                      HR03949-205-20221037      33  oèitanje internih vodomjera                                                                                                                                                           ZIN 302387124                                                                                                                                                                                                                                                                                                                                                                                                                                                                                                                        905
HR2924070001100072069HRKENUKO                                                                 06700020221219        +000000001031944+000000000000000        000000000000000000000000000000+000000000000000+000000000000000+000000000018000+0000000010499440014000003                                                                                                                                                                                                                                                                                                                                                                                                                                                                                                                                                                                                                                                                                                                                                                 907
2407000OTPVHR2X   HR2924070001100072069HRKENUKO                                                                 SLAVONSKI BROD                     97552909572399529450680012022122000151000                                                                                                                                                                                                                                                                                                                                                                                                                                                                                                                                                                                                                                                                                                                                                                                                                                         903
20HR5423900010735000006             MARKO JELAVIÆ                                                         SLAV.BROD SLAVONIJA I 2/2                                             2022122020221220   000000000000000+000000000000000+000000000006000HR99                      HR03825-205-20220839      33  oèitanje internih vodomjera razdoblje 202112-202211                                                                                                                                   ZIN 302634811                                                                                                                                                                                                                                                                                                                                                                                                                                                                                                                        905
10HR5324070001024070003             OTP banka d.d.                                                        DOMOVINSKOG RATA 61                SPLIT                              2022122020221220   000000000000000+000000000000000+000000000100000HR00302661642-01          HR175001114711-20122022   33  POS KUPOVINA/19.12/HRK/1000,00KAUFLAND 2830,SLAVONSKI BROBr.kart.xx8270                                                                                                               IPR 302661642                                                                                                                                                                                                                                                                                                                                                                                                                                                                                                                        905
HR2924070001100072069HRKENUKO                                                                 06800020221220        +000000001049944+000000000000000        000000000000000000000000000000+000000000000000+000000000100000+000000000006000+0000000009559440015000002                                                                                                                                                                                                                                                                                                                                                                                                                                                                                                                                                                                                                                                                                                                                                                 907
2407000OTPVHR2X   HR2924070001100072069HRKENUKO                                                                 SLAVONSKI BROD                     97552909572399529450690012022122100161000                                                                                                                                                                                                                                                                                                                                                                                                                                                                                                                                                                                                                                                                                                                                                                                                                                         903
20HR6423400091000000013             MARIJA BREZIÈEVIÆ                                                     RADNIÈKA CESTA 50                  ZAGREB                             2022122120221221   000000000000000+000000000000000+000000000006000HR0541874-075938-448509   HR03981-205-20220960      33  oèitanje internih vodomjera razdobl                                                                                                                                                   ZIN 302668126                                                                                                                                                                                                                                                                                                                                                                                                                                                                                                                        905
20HR2923400093235520843             BRANKO PERLIÆ                                                         NIKOLE ZRINSKOG                    SLAVONSKI BROD                     2022122120221221   000000000000000+000000000000000+000000000006000HR0524511-365-000805838054HR00752-205-20220936      33  Oèitanje internih vodomjera za 202201                                                                                                                                                 ZIN 302669328                                                                                                                                                                                                                                                                                                                                                                                                                                                                                                                        905
10HR5324070001024070003             OTP banka d.d.                                                        DOMOVINSKOG RATA 61                SPLIT                              2022122120221221   000000000000000+000000000000000+000000000009485HR00302855605-01          HR175001114711-21122022   33  POS KUPOVINA/20.12/HRK/94,85TDA BROD DOO-KNJIZARA,SLAVONSKI BROBr.kart.xx8270                                                                                                         IPR 302855605                                                                                                                                                                                                                                                                                                                                                                                                                                                                                                                        905
HR2924070001100072069HRKENUKO                                                                 06900020221221        +000000000955944+000000000000000        000000000000000000000000000000+000000000000000+000000000009485+000000000012000+0000000009584590016000003                                                                                                                                                                                                                                                                                                                                                                                                                                                                                                                                                                                                                                                                                                                                                                 907
2407000OTPVHR2X   HR2924070001100072069HRKENUKO                                                                 SLAVONSKI BROD                     97552909572399529450700012022122200171000                                                                                                                                                                                                                                                                                                                                                                                                                                                                                                                                                                                                                                                                                                                                                                                                                                         903
20HR6423400091000000013             VINKO KUZMIÆ                                                          RADNIÈKA CESTA 50                  ZAGREB                             2022122220221222   000000000000000+000000000000000+000000000006000HR0541874-075938-606599   HR03892-205-20220774      33  oèitan je internih vodom jera razdo                                                                                                                                                   ZIN 302859393                                                                                                                                                                                                                                                                                                                                                                                                                                                                                                                        905
HR2924070001100072069HRKENUKO                                                                 07000020221222        +000000000958459+000000000000000        000000000000000000000000000000+000000000000000+000000000000000+000000000006000+0000000009644590017000001                                                                                                                                                                                                                                                                                                                                                                                                                                                                                                                                                                                                                                                                                                                                                                 907
2407000OTPVHR2X   HR2924070001100072069HRKENUKO                                                                 SLAVONSKI BROD                     97552909572399529450710012022122300181000                                                                                                                                                                                                                                                                                                                                                                                                                                                                                                                                                                                                                                                                                                                                                                                                                                         903
20HR6423400091000000013             MARIJA TERZIÆ                                                         RADNIÈKA CESTA 50                  ZAGREB                             2022122320221223   000000000000000+000000000000000+000000000006000HR0541874-075938-010607   HR03744-205-20220928      33  oèitan je internih vodom jera razdo                                                                                                                                                   ZIN 303122666                                                                                                                                                                                                                                                                                                                                                                                                                                                                                                                        905
HR2924070001100072069HRKENUKO                                                                 07100020221223        +000000000964459+000000000000000        000000000000000000000000000000+000000000000000+000000000000000+000000000006000+0000000009704590018000001                                                                                                                                                                                                                                                                                                                                                                                                                                                                                                                                                                                                                                                                                                                                                                 907
2407000OTPVHR2X   HR2924070001100072069HRKENUKO                                                                 SLAVONSKI BROD                     97552909572399529450720012022122800191000                                                                                                                                                                                                                                                                                                                                                                                                                                                                                                                                                                                                                                                                                                                                                                                                                                         903
20HR2024070001300004848             SZP STROSSMAYEROVA 73, SLAV. BROD                                     STROSSMAYEROVA 73                  35000 SLAVONSKI BROD               2022122820221228   000000000000000+000000000000000+000000000130000HR99                      HR99                      33  ODRZAVANJE 2022 1-6                                                                                                                                                                   IPR 303593042                                                                                                                                                                                                                                                                                                                                                                                                                                                                                                                        905
20HR8524070001300012602             SZP GUNDULIÆEVA 18, SLAVONSKI BROD                                    GUNDULIÆEVA 18                     35000 SLAVONSKI BROD               2022122820221228   000000000000000+000000000000000+000000000102000HR99                      HR99                      33  ODRZAVANJE 2022 1-6                                                                                                                                                                   IPR 303593053                                                                                                                                                                                                                                                                                                                                                                                                                                                                                                                        905
20HR9224070001300005298             SZP RELJKOVIÆEVA 43, SLAV. BROD                                       RELJKOVIÆEVA 43                    35000 SLAVONSKI BROD               2022122820221228   000000000000000+000000000000000+000000000108000HR99                      HR99                      33  ODRZAVANJE 2022 1-6                                                                                                                                                                   IPR 303593070                                                                                                                                                                                                                                                                                                                                                                                                                                                                                                                        905
20HR6024070001300009560             SZP TESLINA 20, SLAVONSKI BROD                                        TESLINA 20                         35000 SLAVONSKI BROD               2022122820221228   000000000000000+000000000000000+000000000114000HR99                      HR99                      33  ODRZAVANJE 2022 1-6                                                                                                                                                                   IPR 303593080                                                                                                                                                                                                                                                                                                                                                                                                                                                                                                                        905
20HR8124070001300005302             SZP JAGIÆEVA 62, SLAVONSKI BROD                                       JAGIÆEVA 62                        35000 SLAVONSKI BROD               2022122820221228   000000000000000+000000000000000+000000000130000HR99                      HR99                      33  ODRZAVANJE 2022 1-6                                                                                                                                                                   IPR 303593096                                                                                                                                                                                                                                                                                                                                                                                                                                                                                                                        905
HR2924070001100072069HRKENUKO                                                                 07200020221228        +000000000970459+000000000000000        000000000000000000000000000000+000000000000000+000000000000000+000000000584000+0000000015544590019000005                                                                                                                                                                                                                                                                                                                                                                                                                                                                                                                                                                                                                                                                                                                                                                 907
2407000OTPVHR2X   HR2924070001100072069HRKENUKO                                                                 SLAVONSKI BROD                     97552909572399529450730012022122900201000                                                                                                                                                                                                                                                                                                                                                                                                                                                                                                                                                                                                                                                                                                                                                                                                                                         903
10HR2523900011300070827             zatvoreni mio fond                                                                                                                          2022122920221229   000000000000000+000000000000000+000000000380000HR99                      HR009012424               33  dobrovolna mio                                                                                                                                                                        ZOU 303593156                                                                                                                                                                                                                                                                                                                                                                                                                                                                                                                        905
10HR9124020063204984605             Ranko Simiæ                                                                                                                                 2022122920221229   000000000000000+000000000000000+000000000600000HR99                      HR99                      33  prehrana pausal                                                                                                                                                                       ZOU 303593650                                                                                                                                                                                                                                                                                                                                                                                                                                                                                                                        905
10HR8010010051739627158             èlanarina tz                                                                                                                                2022122920221229   000000000000000+000000000000000+000000000005184HR99                      HR6757239952945           33  turistièka zajednica                                                                                                                                                                  ZOU 303633132                                                                                                                                                                                                                                                                                                                                                                                                                                                                                                                        905
20HR2323600003236097951             ALEKSANDRA BORIÆ                                                      DOMOBRANSKA ULICA 12               35000 SLAVONSKI BROD, SLAVONSKI BRO2022122920221229   000000000000000+000000000000000+000000000006000HR99                      HR03922-205-20221010      33  ocitanje vodomjera M.Miokoviæ                                                                                                                                                         ZIN 303646231                                                                                                                                                                                                                                                                                                                                                                                                                                                                                                                        905
20HR8023900010735101000             TIHOMIR FERKOVIÆ                                                      SL BROD E KUMIÈIÆA 5                                                  2022122920221229   000000000000000+000000000000000+000000000006000HR99                      HR03906-205-20220723      33  oèitanje internog vodomjera                                                                                                                                                           ZIN 303721454                                                                                                                                                                                                                                                                                                                                                                                                                                                                                                                        905
HR2924070001100072069HRKENUKO                                                                 07300020221229        +000000001554459+000000000000000        000000000000000000000000000000+000000000000000+000000000985184+000000000012000+0000000005812750020000005                                                                                                                                                                                                                                                                                                                                                                                                                                                                                                                                                                                                                                                                                                                                                                 907
2024050300020000094                                                                                                                                                                                                                                                                                                                                                                                                                                                                                                                                                                                                                                                                                                                                                                                                                                                                                                                                                                                                                  909
                                                                                                                                                                                                                                                                                                                                                                                                                                                                                                                                                                                                                                                                                                                                                                                                                                                                                                                                                                                                                                     999
