2407000OTP banka d.d.                                    52508873833100020240503                                                                                                                                                                                                                                                                                                                                                                                                                                                                                                                                                                                                                                                                                                                                                                                                                                                                                                                                                     900
2407000OTPVHR2X   HR2924070001100072069EURENUKO                                                                 SLAVONSKI BROD                     97552909572399529450370012023090100011000                                                                                                                                                                                                                                                                                                                                                                                                                                                                                                                                                                                                                                                                                                                                                                                                                                         903
10HR5324070001024070003             OTP banka d.d.                                                        DOMOVINSKOG RATA 61                SPLIT                              2023090120230901   000000000000000+000000000000000+000000000001266HR00287706-0001-2023      HR17500410150405          33  Naknade od 01.08.2023 do 31.08.2023                                                                                                                                                   IPR 338456064                                                                                                                                                                                                                                                                                                                                                                                                                                                                                                                        905
HR2924070001100072069EURENUKO                                                                 03700020230901        +000000000131161+000000000000000        000000000000000000000000000000+000000000000000+000000000001266+000000000000000+0000000001298950001000001                                                                                                                                                                                                                                                                                                                                                                                                                                                                                                                                                                                                                                                                                                                                                                 907
2407000OTPVHR2X   HR2924070001100072069EURENUKO                                                                 SLAVONSKI BROD                     97552909572399529450380012023090600021000                                                                                                                                                                                                                                                                                                                                                                                                                                                                                                                                                                                                                                                                                                                                                                                                                                         903
20HR4023600003217917905             GROZDANA TAJMER                                                       NASELJE SLAVONIJA I 3/2            35000 SLAVONSKI BROD, SLAVONSKI BRO2023090620230906   000000000000000+000000000000000+000000000001593HR99                      HR03884-205-2022036       33  OÈITANJE INTERNIH VODOMJERA RAZDOBLJE 202104-202203                                                                                                                                   ZIN 339039751                                                                                                                                                                                                                                                                                                                                                                                                                                                                                                                        905
HR2924070001100072069EURENUKO                                                                 03800020230906        +000000000129895+000000000000000        000000000000000000000000000000+000000000000000+000000000000000+000000000001593+0000000001314880002000001                                                                                                                                                                                                                                                                                                                                                                                                                                                                                                                                                                                                                                                                                                                                                                 907
2407000OTPVHR2X   HR2924070001100072069EURENUKO                                                                 SLAVONSKI BROD                     97552909572399529450390012023091800031000                                                                                                                                                                                                                                                                                                                                                                                                                                                                                                                                                                                                                                                                                                                                                                                                                                         903
20HR8324070003206929915             ANTE BUDIMIR                                                          NASELJE SLAVONIJA I 3/2            35000 SLAVONSKI BROD               2023091820230918   000000000000000+000000000000000+000000000001593HR073206929915-1899       HR0327-205-2022028        33  oèitanje internih vodomjera razdoblje 202103-202202                                                                                                                                   IUP 39825183                                                                                                                                                                                                                                                                                                                                                                                                                                                                                                                         905
HR2924070001100072069EURENUKO                                                                 03900020230918        +000000000131488+000000000000000        000000000000000000000000000000+000000000000000+000000000000000+000000000001593+0000000001330810003000001                                                                                                                                                                                                                                                                                                                                                                                                                                                                                                                                                                                                                                                                                                                                                                 907
2407000OTPVHR2X   HR2924070001100072069EURENUKO                                                                 SLAVONSKI BROD                     97552909572399529450400012023092200041000                                                                                                                                                                                                                                                                                                                                                                                                                                                                                                                                                                                                                                                                                                                                                                                                                                         903
20HR5123600003210763860             SLAVEN MIKIÆ                                                          NASELJE SLAVONIJA I 3/2            35000 SLAVONSKI BROD               2023092220230922   000000000000000+000000000000000+000000000001593HR99                      HR003-205-2022028         33  - - ocitanjeinternih vodomjera - -.razdobIe202103 - 202202 - - . -                                                                                                                    ZIN 341872750                                                                                                                                                                                                                                                                                                                                                                                                                                                                                                                        905
HR2924070001100072069EURENUKO                                                                 04000020230922        +000000000133081+000000000000000        000000000000000000000000000000+000000000000000+000000000000000+000000000001593+0000000001346740004000001                                                                                                                                                                                                                                                                                                                                                                                                                                                                                                                                                                                                                                                                                                                                                                 907
2407000OTPVHR2X   HR2924070001100072069EURENUKO                                                                 SLAVONSKI BROD                     97552909572399529450410012023100200051000                                                                                                                                                                                                                                                                                                                                                                                                                                                                                                                                                                                                                                                                                                                                                                                                                                         903
10HR5324070001024070003             OTP banka d.d.                                                        DOMOVINSKOG RATA 61                SPLIT                              2023100220231002   000000000000000+000000000000000+000000000000962HR00329481-0001-2023      HR17500410150405          33  Naknade od 01.09.2023 do 30.09.2023                                                                                                                                                   IPR 343026625                                                                                                                                                                                                                                                                                                                                                                                                                                                                                                                        905
HR2924070001100072069EURENUKO                                                                 04100020231002        +000000000134674+000000000000000        000000000000000000000000000000+000000000000000+000000000000962+000000000000000+0000000001337120005000001                                                                                                                                                                                                                                                                                                                                                                                                                                                                                                                                                                                                                                                                                                                                                                 907
2024050300005000017                                                                                                                                                                                                                                                                                                                                                                                                                                                                                                                                                                                                                                                                                                                                                                                                                                                                                                                                                                                                                  909
                                                                                                                                                                                                                                                                                                                                                                                                                                                                                                                                                                                                                                                                                                                                                                                                                                                                                                                                                                                                                                     999
