2407000OTP banka d.d.                                    52508873833100020240503                                                                                                                                                                                                                                                                                                                                                                                                                                                                                                                                                                                                                                                                                                                                                                                                                                                                                                                                                     900
2407000OTPVHR2X   HR2924070001100072069HRKENUKO                                                                 SLAVONSKI BROD                     97552909572399529450070012022040100011000                                                                                                                                                                                                                                                                                                                                                                                                                                                                                                                                                                                                                                                                                                                                                                                                                                         903
20HR9124020063204984605             RANKO SIMIÆ                                                           NASELJE SLAVONIJA II 2/6           35000                              2022040120220401   000000000000000+000000000000000+000000000400000HR05245139206-174         HR99                      33  pozajmica                                                                                                                                                                             ZIN 266060743                                                                                                                                                                                                                                                                                                                                                                                                                                                                                                                        905
10HR5324070001024070003             OTP banka d.d.                                                        DOMOVINSKOG RATA 61                SPLIT                              2022040120220401   000000000000000+000000000000000+000000000007250HR0077400-0001-2022       HR17500410150405          33  Naknade od 01.03.2022 do 31.03.2022                                                                                                                                                   IPR 266137348                                                                                                                                                                                                                                                                                                                                                                                                                                                                                                                        905
HR2924070001100072069HRKENUKO                                                                 00700020220401        +000000000098054+000000000000000        000000000000000000000000000000+000000000000000+000000000007250+000000000400000+0000000004908040001000002                                                                                                                                                                                                                                                                                                                                                                                                                                                                                                                                                                                                                                                                                                                                                                 907
2407000OTPVHR2X   HR2924070001100072069HRKENUKO                                                                 SLAVONSKI BROD                     97552909572399529450080012022040400021000                                                                                                                                                                                                                                                                                                                                                                                                                                                                                                                                                                                                                                                                                                                                                                                                                                         903
10HR5324070001024070003             OTP banka d.d.                                                        DOMOVINSKOG RATA 61                SPLIT                              2022040420220404   000000000000000+000000000000000+000000000431893HR00266426389-01          HR175001114711-04042022   33  POS KUPOVINA/01.04/HRK/4318,93SAMSUNG BRAND STORE,ZAGREBBr.kart.xx9756                                                                                                                IPR 266426389                                                                                                                                                                                                                                                                                                                                                                                                                                                                                                                        905
HR2924070001100072069HRKENUKO                                                                 00800020220404        +000000000490804+000000000000000        000000000000000000000000000000+000000000000000+000000000431893+000000000000000+0000000000589110002000001                                                                                                                                                                                                                                                                                                                                                                                                                                                                                                                                                                                                                                                                                                                                                                 907
2407000OTPVHR2X   HR2924070001100072069HRKENUKO                                                                 SLAVONSKI BROD                     97552909572399529450090012022040700031000                                                                                                                                                                                                                                                                                                                                                                                                                                                                                                                                                                                                                                                                                                                                                                                                                                         903
20HR2024070001300004848             SZP STROSSMAYEROVA 73, SLAV. BROD                                     STROSSMAYEROVA 73                  35000 SLAVONSKI BROD               2022040720220407   000000000000000+000000000000000+000000000147000HR99                      HR99                      33  ODRZAVANJE 2021 - 6-12                                                                                                                                                                IPR 266807548                                                                                                                                                                                                                                                                                                                                                                                                                                                                                                                        905
20HR9224070001300005298             SZP RELJKOVIÆEVA 43, SLAV. BROD                                       RELJKOVIÆEVA 43                    35000 SLAVONSKI BROD               2022040720220407   000000000000000+000000000000000+000000000108000HR99                      HR99                      33  ODRZAVANJE 2021 - 6-12                                                                                                                                                                IPR 266807832                                                                                                                                                                                                                                                                                                                                                                                                                                                                                                                        905
20HR8124070001300005302             SZP JAGIÆEVA 62, SLAVONSKI BROD                                       JAGIÆEVA 62                        35000 SLAVONSKI BROD               2022040720220407   000000000000000+000000000000000+000000000130000HR99                      HR99                      33  ODRZAVANJE 2021 - 6-12                                                                                                                                                                IPR 266810402                                                                                                                                                                                                                                                                                                                                                                                                                                                                                                                        905
20HR6024070001300009560             SZP TESLINA 20, SLAVONSKI BROD                                        TESLINA 20                         35000 SLAVONSKI BROD               2022040720220407   000000000000000+000000000000000+000000000114000HR99                      HR99                      33  ODRZAVANJE 2021 - 6-12                                                                                                                                                                IPR 266810688                                                                                                                                                                                                                                                                                                                                                                                                                                                                                                                        905
20HR8524070001300012602             SZP GUNDULIÆEVA 18, SLAVONSKI BROD                                    GUNDULIÆEVA 18                     35000 SLAVONSKI BROD               2022040720220407   000000000000000+000000000000000+000000000102000HR99                      HR99                      33  ODRZAVANJE 2021 - 6-12                                                                                                                                                                IPR 266811205                                                                                                                                                                                                                                                                                                                                                                                                                                                                                                                        905
10HR9124020063204984605             Ranko Simiæ                                                                                                                                 2022040720220407   000000000000000+000000000000000+000000000400000HR99                      HR99                      33  povrat pozajmice                                                                                                                                                                      ZOU 266832761                                                                                                                                                                                                                                                                                                                                                                                                                                                                                                                        905
HR2924070001100072069HRKENUKO                                                                 00900020220407        +000000000058911+000000000000000        000000000000000000000000000000+000000000000000+000000000400000+000000000601000+0000000002599110003000006                                                                                                                                                                                                                                                                                                                                                                                                                                                                                                                                                                                                                                                                                                                                                                 907
2407000OTPVHR2X   HR2924070001100072069HRKENUKO                                                                 SLAVONSKI BROD                     97552909572399529450100012022041100041000                                                                                                                                                                                                                                                                                                                                                                                                                                                                                                                                                                                                                                                                                                                                                                                                                                         903
20HR6423400091000000013             Æ1RlÆ MIRJANA                                                         RADNIÈKA CESTA 50                  ZAGREB                             2022041120220411   000000000000000+000000000000000+000000000006000HR0541874-075938-435164   HR03329-205-2021030       33  oèitan je internih vodom jera razdo                                                                                                                                                   ZIN 267224660                                                                                                                                                                                                                                                                                                                                                                                                                                                                                                                        905
20HR9823400093203937759             MILKA LEŠIÆ                                                           MIKRORAJON                         SLAVONSKI BROD                     2022041120220411   000000000000000+000000000000000+000000000006000HR0524511-365-000719515631HR03256-205-2021030       33  Oèitanje int.vodomjera razd.202004-202103                                                                                                                                             ZIN 267295737                                                                                                                                                                                                                                                                                                                                                                                                                                                                                                                        905
HR2924070001100072069HRKENUKO                                                                 01000020220411        +000000000259911+000000000000000        000000000000000000000000000000+000000000000000+000000000000000+000000000012000+0000000002719110004000002                                                                                                                                                                                                                                                                                                                                                                                                                                                                                                                                                                                                                                                                                                                                                                 907
2407000OTPVHR2X   HR2924070001100072069HRKENUKO                                                                 SLAVONSKI BROD                     97552909572399529450110012022041500051000                                                                                                                                                                                                                                                                                                                                                                                                                                                                                                                                                                                                                                                                                                                                                                                                                                         903
20HR8024840083234237996             MIŠÈANÈUK JADRANKA                                                    NASELJE MIKRORAJON 1B              HR/35000 SLAVONSKI BROD            2022041520220415   000000000000000+000000000000000+000000000006000HR99                      HR03337-205-2021030       33  Oèitanje internih vodomjera 202004-202103                                                                                                                                             ZIN 268093256                                                                                                                                                                                                                                                                                                                                                                                                                                                                                                                        905
HR2924070001100072069HRKENUKO                                                                 01100020220415        +000000000271911+000000000000000        000000000000000000000000000000+000000000000000+000000000000000+000000000006000+0000000002779110005000001                                                                                                                                                                                                                                                                                                                                                                                                                                                                                                                                                                                                                                                                                                                                                                 907
2407000OTPVHR2X   HR2924070001100072069HRKENUKO                                                                 SLAVONSKI BROD                     97552909572399529450120012022041900061000                                                                                                                                                                                                                                                                                                                                                                                                                                                                                                                                                                                                                                                                                                                                                                                                                                         903
20HR8223600003234014493             LEO MILOJEVIÆ                                                         NASELJE ANDRIJE HEBRANGA 6/19      35000 SLAVONSKI BROD               2022041920220419   000000000000000+000000000000000+000000000006000HR99                      HR03434-205-2021099       33  Oèitanje internih vodomjera razdoblje 202010-202109                                                                                                                                   ZIN 268362655                                                                                                                                                                                                                                                                                                                                                                                                                                                                                                                        905
20HR5741240031011111116             STJEPAN ZAREZOVSKI                                                    GUNDULIÆEVA 68                     SLAVONSKI BROD                     2022041920220419   000000000000000+000000000000000+000000000006000HR99                      HR03426-205-2021099       33  OÈITANJE INTERNIH VODOMJERA RAZDOBLJE 202010-202109                                                                                                                                   ZIN 268455381                                                                                                                                                                                                                                                                                                                                                                                                                                                                                                                        905
20HR8023900010735101000             GORDANA MIKEC                                                         35000 SLAV. BROD MIKRORAJON 1B                                        2022041920220419   000000000000000+000000000000000+000000000006000HR99                      HR03299-205-2021030       33  oèitanje vodomjera                                                                                                                                                                    ZIN 268471647                                                                                                                                                                                                                                                                                                                                                                                                                                                                                                                        905
HR2924070001100072069HRKENUKO                                                                 01200020220419        +000000000277911+000000000000000        000000000000000000000000000000+000000000000000+000000000000000+000000000018000+0000000002959110006000003                                                                                                                                                                                                                                                                                                                                                                                                                                                                                                                                                                                                                                                                                                                                                                 907
2407000OTPVHR2X   HR2924070001100072069HRKENUKO                                                                 SLAVONSKI BROD                     97552909572399529450130012022042000071000                                                                                                                                                                                                                                                                                                                                                                                                                                                                                                                                                                                                                                                                                                                                                                                                                                         903
20HR7123900010735103005             AMIRA DIZDAREVIÆ                                                      MIKROPRAJON 1B                                                        2022042020220420   000000000000000+000000000000000+000000000006000HR99                      HR03302-205-2021030       33  vodomjer                                                                                                                                                                              ZIN 268701825                                                                                                                                                                                                                                                                                                                                                                                                                                                                                                                        905
HR2924070001100072069HRKENUKO                                                                 01300020220420        +000000000295911+000000000000000        000000000000000000000000000000+000000000000000+000000000000000+000000000006000+0000000003019110007000001                                                                                                                                                                                                                                                                                                                                                                                                                                                                                                                                                                                                                                                                                                                                                                 907
2407000OTPVHR2X   HR2924070001100072069HRKENUKO                                                                 SLAVONSKI BROD                     97552909572399529450140012022042100081000                                                                                                                                                                                                                                                                                                                                                                                                                                                                                                                                                                                                                                                                                                                                                                                                                                         903
20HR6423400091000000013             CAZl JOSlP                                                            RADNIÈKA CESTA 50                  ZAGREB                             2022042120220421   000000000000000+000000000000000+000000000012000HR0541874-075938-382746   HR03272-205-2021030       33  oèitan je internih vodom jera razdo                                                                                                                                                   ZIN 268763488                                                                                                                                                                                                                                                                                                                                                                                                                                                                                                                        905
20HR5324070001024070003             BLAGUNA JEMELKA                                                       MIKRORAJON 1B                      SL. BROD                           2022042120220421   000000000000000+000000000000000+000000000012000HR99                      HR03264-205-2021030       33  OÈITANJE INTERNIH VODOMJERA RAZDOBLJE 202004-202103                                                                                         QP100223430003001000102022-04-210004000001IPR 268849091                                                                                                                                                                                                                                                                                                                                                                                                                                                                                                                        905
20HR5741240031011111116             HABIBA TANOVIÆ                                                        MIKRORAJON 1 B                     SLAVONSKI BROD                     2022042120220421   000000000000000+000000000000000+000000000006000HR99                      HR03280-205-2021030       33  OÈITANJE INTERNIH VODOMJERA RAZDOBLJE 202004-202103                                                                                                                                   ZIN 268862832                                                                                                                                                                                                                                                                                                                                                                                                                                                                                                                        905
HR2924070001100072069HRKENUKO                                                                 01400020220421        +000000000301911+000000000000000        000000000000000000000000000000+000000000000000+000000000000000+000000000030000+0000000003319110008000003                                                                                                                                                                                                                                                                                                                                                                                                                                                                                                                                                                                                                                                                                                                                                                 907
2407000OTPVHR2X   HR2924070001100072069HRKENUKO                                                                 SLAVONSKI BROD                     97552909572399529450150012022042200091000                                                                                                                                                                                                                                                                                                                                                                                                                                                                                                                                                                                                                                                                                                                                                                                                                                         903
20HR6523400091310344317             SZP I.GUNDULIÆA 3                                                     Mile Budaka 1, SLAVONSKI BROD      Slavonski                          2022042220220422   000000000000000+000000000000000+000000000033000HR0519-2213-564           HR008-1-22                33  oèitanje vodomjera                                                                                                                                                                    ZIN 268993695                                                                                                                                                                                                                                                                                                                                                                                                                                                                                                                        905
20HR7823400091310368721             SZP F.SUPILA 24                                                       Mile Budaka 1, SLAVONSKI BROD      Slavonski                          2022042220220422   000000000000000+000000000000000+000000000048000HR0519-2211-564           HR009-1-22                33  oèitanje vodomjera                                                                                                                                                                    ZIN 268993696                                                                                                                                                                                                                                                                                                                                                                                                                                                                                                                        905
20HR6441240031320000506             ÐURO ÐAKOVIÆ STAN DRUŠTVO S OGRANIÈ                                   MILE BUDAKA 1                      Slavonski                          2022042220220422   000000000000000+000000000000000+000000000074000HR0519-2221-564           HR007-1-22                33  ocitanje vodomjera                                                                                                                                                                    ZIN 269009606                                                                                                                                                                                                                                                                                                                                                                                                                                                                                                                        905
20HR2741240031320000299             ÐURO ÐAKOVIÆ STAN DRUŠTVO S OGRANIÈ                                   MILE BUDAKA 1                      Slavonski                          2022042220220422   000000000000000+000000000000000+000000000044000HR0519-2214-564           HR006-1-22                33  ocitanje vodomjera                                                                                                                                                                    ZIN 269009607                                                                                                                                                                                                                                                                                                                                                                                                                                                                                                                        905
20HR0841240031320004036             SZP MILE BUDAKA 23,SLAVONSKI BROD - BRUNO MARTIÆ, DOMAR               TOME SKALICE 9                     SLAVONSKI BROD                     2022042220220422   000000000000000+000000000000000+000000000052500HR99                      HR002022-010              33  RN.010/1/22                                                                                                                                                                           ZIN 269009680                                                                                                                                                                                                                                                                                                                                                                                                                                                                                                                        905
20HR5023400093213548413             MARKO MILJKOVIÆ                                                       DUDINJAK                           PODVINJE                           2022042220220422   000000000000000+000000000000000+000000000006000HR99                      HR03469-205-2021099       33  469-205-2021099 oèitanje vodomjera                                                                                                                                                    ZIN 269025391                                                                                                                                                                                                                                                                                                                                                                                                                                                                                                                        905
20HR5324070001024070003             DRAGAN JERBIÆ                                                         Gunduliæeva 68                     Slavonski Brod                     2022042220220422   000000000000000+000000000000000+000000000006000HR99                      HR03450-205-2021099       33  oèitanje internih vodomjera razdoblje 202010 - 202109                                                                                       QP100183430003001002452022-04-220008400001IPR 269041915                                                                                                                                                                                                                                                                                                                                                                                                                                                                                                                        905
HR2924070001100072069HRKENUKO                                                                 01500020220422        +000000000331911+000000000000000        000000000000000000000000000000+000000000000000+000000000000000+000000000263500+0000000005954110009000007                                                                                                                                                                                                                                                                                                                                                                                                                                                                                                                                                                                                                                                                                                                                                                 907
2407000OTPVHR2X   HR2924070001100072069HRKENUKO                                                                 SLAVONSKI BROD                     97552909572399529450160012022042600101000                                                                                                                                                                                                                                                                                                                                                                                                                                                                                                                                                                                                                                                                                                                                                                                                                                         903
20HR6423400091000000013             ANDRIÆ ANICA                                                          RADNIÈKA CESTA 50                  ZAGREB                             2022042620220426   000000000000000+000000000000000+000000000012000HR0541874-075938-548244   HR03310-205-2021030       33  oèitan je internih vodomjera razdob                                                                                                                                                   ZIN 269335184                                                                                                                                                                                                                                                                                                                                                                                                                                                                                                                        905
HR2924070001100072069HRKENUKO                                                                 01600020220426        +000000000595411+000000000000000        000000000000000000000000000000+000000000000000+000000000000000+000000000012000+0000000006074110010000001                                                                                                                                                                                                                                                                                                                                                                                                                                                                                                                                                                                                                                                                                                                                                                 907
2407000OTPVHR2X   HR2924070001100072069HRKENUKO                                                                 SLAVONSKI BROD                     97552909572399529450170012022042700111000                                                                                                                                                                                                                                                                                                                                                                                                                                                                                                                                                                                                                                                                                                                                                                                                                                         903
20HR4423400093218913979             MARTINA ŠETKA                                                         IVANA GUNDULIÆA                    SLAVONSKI BROD                     2022042720220427   000000000000000+000000000000000+000000000006000HR0524511-365-000724720845HR03442-205-2021099       33  Oèitanje internih vodomjera razdoblje 202010-202109                                                                                                                                   ZIN 269462708                                                                                                                                                                                                                                                                                                                                                                                                                                                                                                                        905
HR2924070001100072069HRKENUKO                                                                 01700020220427        +000000000607411+000000000000000        000000000000000000000000000000+000000000000000+000000000000000+000000000006000+0000000006134110011000001                                                                                                                                                                                                                                                                                                                                                                                                                                                                                                                                                                                                                                                                                                                                                                 907
2407000OTPVHR2X   HR2924070001100072069HRKENUKO                                                                 SLAVONSKI BROD                     97552909572399529450180012022050200121000                                                                                                                                                                                                                                                                                                                                                                                                                                                                                                                                                                                                                                                                                                                                                                                                                                         903
10HR5324070001024070003             OTP banka d.d.                                                        DOMOVINSKOG RATA 61                SPLIT                              2022050220220502   000000000000000+000000000000000+000000000009460HR00114983-0001-2022      HR17500410150405          33  Naknade od 01.04.2022 do 30.04.2022                                                                                                                                                   IPR 269988860                                                                                                                                                                                                                                                                                                                                                                                                                                                                                                                        905
HR2924070001100072069HRKENUKO                                                                 01800020220502        +000000000613411+000000000000000        000000000000000000000000000000+000000000000000+000000000009460+000000000000000+0000000006039510012000001                                                                                                                                                                                                                                                                                                                                                                                                                                                                                                                                                                                                                                                                                                                                                                 907
2407000OTPVHR2X   HR2924070001100072069HRKENUKO                                                                 SLAVONSKI BROD                     97552909572399529450190012022050400131000                                                                                                                                                                                                                                                                                                                                                                                                                                                                                                                                                                                                                                                                                                                                                                                                                                         903
10HR7423400091100014108             TENIS KLUB BROD                                                                                                                             2022050420220504   000000000000000+000000000000000+000000000065000HR99                      HR99                      33  DONACIJAbroj èlana:299RANKO SIMIÆ                                                                                                                                                     ZOU 270285192                                                                                                                                                                                                                                                                                                                                                                                                                                                                                                                        905
HR2924070001100072069HRKENUKO                                                                 01900020220504        +000000000603951+000000000000000        000000000000000000000000000000+000000000000000+000000000065000+000000000000000+0000000005389510013000001                                                                                                                                                                                                                                                                                                                                                                                                                                                                                                                                                                                                                                                                                                                                                                 907
2407000OTPVHR2X   HR2924070001100072069HRKENUKO                                                                 SLAVONSKI BROD                     97552909572399529450200012022050500141000                                                                                                                                                                                                                                                                                                                                                                                                                                                                                                                                                                                                                                                                                                                                                                                                                                         903
20HR5741240031011111116             EDIN MLIVIÆ                                                           I. GUNDULIÆA 68                    SL.BROD                            2022050520220505   000000000000000+000000000000000+000000000006000HR99                      HR03477-205-2021099       33  OÈITANJE INTERNIH VODOMJERA RAZDOBLJE 202010-202109                                                                                                                                   ZIN 270500439                                                                                                                                                                                                                                                                                                                                                                                                                                                                                                                        905
HR2924070001100072069HRKENUKO                                                                 02000020220505        +000000000538951+000000000000000        000000000000000000000000000000+000000000000000+000000000000000+000000000006000+0000000005449510014000001                                                                                                                                                                                                                                                                                                                                                                                                                                                                                                                                                                                                                                                                                                                                                                 907
2407000OTPVHR2X   HR2924070001100072069HRKENUKO                                                                 SLAVONSKI BROD                     97552909572399529450210012022052500151000                                                                                                                                                                                                                                                                                                                                                                                                                                                                                                                                                                                                                                                                                                                                                                                                                                         903
20HR7123900010735103005             KARVAZI  DAVORIN                                                      35000 GUNDULIÆEVA  68                                                 2022052520220525   000000000000000+000000000000000+000000000055000HR99                      HR002022-026              33  palè raèuna                                                                                                                                                                           ZIN 273372963                                                                                                                                                                                                                                                                                                                                                                                                                                                                                                                        905
HR2924070001100072069HRKENUKO                                                                 02100020220525        +000000000544951+000000000000000        000000000000000000000000000000+000000000000000+000000000000000+000000000055000+0000000005999510015000001                                                                                                                                                                                                                                                                                                                                                                                                                                                                                                                                                                                                                                                                                                                                                                 907
2407000OTPVHR2X   HR2924070001100072069HRKENUKO                                                                 SLAVONSKI BROD                     97552909572399529450220012022052700161000                                                                                                                                                                                                                                                                                                                                                                                                                                                                                                                                                                                                                                                                                                                                                                                                                                         903
20HR6441240031320000506             ÐURO ÐAKOVIÆ STAN DRUŠTVO S OGRANIÈ                                   MILE BUDAKA 1                      Slavonski                          2022052720220527   000000000000000+000000000000000+000000000074000HR0519-2234-564           HR002022-028              33  ocitanje vodomjera                                                                                                                                                                    ZIN 273666552                                                                                                                                                                                                                                                                                                                                                                                                                                                                                                                        905
20HR2741240031320000299             ÐURO ÐAKOVIÆ STAN DRUŠTVO S OGRANIÈ                                   MILE BUDAKA 1                      Slavonski                          2022052720220527   000000000000000+000000000000000+000000000044000HR0519-2221-564           HR002022-027              33  ocitanje vodomjera                                                                                                                                                                    ZIN 273666553                                                                                                                                                                                                                                                                                                                                                                                                                                                                                                                        905
HR2924070001100072069HRKENUKO                                                                 02200020220527        +000000000599951+000000000000000        000000000000000000000000000000+000000000000000+000000000000000+000000000118000+0000000007179510016000002                                                                                                                                                                                                                                                                                                                                                                                                                                                                                                                                                                                                                                                                                                                                                                 907
2407000OTPVHR2X   HR2924070001100072069HRKENUKO                                                                 SLAVONSKI BROD                     97552909572399529450230012022060100171000                                                                                                                                                                                                                                                                                                                                                                                                                                                                                                                                                                                                                                                                                                                                                                                                                                         903
10HR5324070001024070003             OTP banka d.d.                                                        DOMOVINSKOG RATA 61                SPLIT                              2022060120220601   000000000000000+000000000000000+000000000007780HR00152795-0001-2022      HR17500410150405          33  Naknade od 01.05.2022 do 31.05.2022                                                                                                                                                   IPR 274077279                                                                                                                                                                                                                                                                                                                                                                                                                                                                                                                        905
HR2924070001100072069HRKENUKO                                                                 02300020220601        +000000000717951+000000000000000        000000000000000000000000000000+000000000000000+000000000007780+000000000000000+0000000007101710017000001                                                                                                                                                                                                                                                                                                                                                                                                                                                                                                                                                                                                                                                                                                                                                                 907
2407000OTPVHR2X   HR2924070001100072069HRKENUKO                                                                 SLAVONSKI BROD                     97552909572399529450240012022062300181000                                                                                                                                                                                                                                                                                                                                                                                                                                                                                                                                                                                                                                                                                                                                                                                                                                         903
10HR6510010051550100001             HZZO                                                                                                                                        2022062320220623   000000000000000+000000000000000+000000000023624HR99                      HR688800-57239952945      33  doprinos                                                                                                                                                                              ZOU 277351507                                                                                                                                                                                                                                                                                                                                                                                                                                                                                                                        905
10HR7610010051700036001             drzavni proracun                                                                                                                            2022062320220623   000000000000000+000000000000000+000000000007709HR99                      HR682224-57239952945      33  doprinos                                                                                                                                                                              ZOU 277351509                                                                                                                                                                                                                                                                                                                                                                                                                                                                                                                        905
10HR1210010051863000160             drzavni proracun                                                                                                                            2022062320220623   000000000000000+000000000000000+000000000023624HR99                      HR688320-57239952945      33  doprinos                                                                                                                                                                              ZOU 277351508                                                                                                                                                                                                                                                                                                                                                                                                                                                                                                                        905
10HR9124020063204984605             Ranko Simiæ                                                                                                                                 2022062320220623   000000000000000+000000000000000+000000000180400HR99                      HR99                      33  PN OD 18.6.2022                                                                                                                                                                       ZOU 277357432                                                                                                                                                                                                                                                                                                                                                                                                                                                                                                                        905
HR2924070001100072069HRKENUKO                                                                 02400020220623        +000000000710171+000000000000000        000000000000000000000000000000+000000000000000+000000000235357+000000000000000+0000000004748140018000004                                                                                                                                                                                                                                                                                                                                                                                                                                                                                                                                                                                                                                                                                                                                                                 907
2024050300018000077                                                                                                                                                                                                                                                                                                                                                                                                                                                                                                                                                                                                                                                                                                                                                                                                                                                                                                                                                                                                                  909
                                                                                                                                                                                                                                                                                                                                                                                                                                                                                                                                                                                                                                                                                                                                                                                                                                                                                                                                                                                                                                     999
