2407000OTP banka d.d.                                    52508873833100020240503                                                                                                                                                                                                                                                                                                                                                                                                                                                                                                                                                                                                                                                                                                                                                                                                                                                                                                                                                     900
2407000OTPVHR2X   HR2924070001100072069EURENUKO                                                                 SLAVONSKI BROD                     97552909572399529450130012023040300011000                                                                                                                                                                                                                                                                                                                                                                                                                                                                                                                                                                                                                                                                                                                                                                                                                                         903
10HR5324070001024070003             OTP banka d.d.                                                        DOMOVINSKOG RATA 61                SPLIT                              2023040320230403   000000000000000+000000000000000+000000000001010HR0082837-0001-2023       HR17500410150405          33  Naknade od 01.03.2023 do 31.03.2023                                                                                                                                                   IPR 316094044                                                                                                                                                                                                                                                                                                                                                                                                                                                                                                                        905
HR2924070001100072069EURENUKO                                                                 01300020230403        +000000000064038+000000000000000        000000000000000000000000000000+000000000000000+000000000001010+000000000000000+0000000000630280001000001                                                                                                                                                                                                                                                                                                                                                                                                                                                                                                                                                                                                                                                                                                                                                                 907
2407000OTPVHR2X   HR2924070001100072069EURENUKO                                                                 SLAVONSKI BROD                     97552909572399529450140012023042900021000                                                                                                                                                                                                                                                                                                                                                                                                                                                                                                                                                                                                                                                                                                                                                                                                                                         903
10HR5324070001024070003             OTP banka d.d.                                                        DOMOVINSKOG RATA 61                SPLIT                              2023042920230429   000000000000000+000000000000000+000000000001599HR00320066925-01          HR175001114711-29042023   33  POS KUPOVINA/28.04/EUR/15,99LIDL HRVATSKA F-244,SLAVONSKI BRBr.kart.xx8270                                                                                                            IPR 320066925                                                                                                                                                                                                                                                                                                                                                                                                                                                                                                                        905
HR2924070001100072069EURENUKO                                                                 01400020230429        +000000000063028+000000000000000        000000000000000000000000000000+000000000000000+000000000001599+000000000000000+0000000000614290002000001                                                                                                                                                                                                                                                                                                                                                                                                                                                                                                                                                                                                                                                                                                                                                                 907
2407000OTPVHR2X   HR2924070001100072069EURENUKO                                                                 SLAVONSKI BROD                     97552909572399529450150012023050200031000                                                                                                                                                                                                                                                                                                                                                                                                                                                                                                                                                                                                                                                                                                                                                                                                                                         903
10HR5324070001024070003             OTP banka d.d.                                                        DOMOVINSKOG RATA 61                SPLIT                              2023050220230502   000000000000000+000000000000000+000000000000930HR00123182-0001-2023      HR17500410150405          33  Naknade od 01.04.2023 do 30.04.2023                                                                                                                                                   IPR 320266624                                                                                                                                                                                                                                                                                                                                                                                                                                                                                                                        905
HR2924070001100072069EURENUKO                                                                 01500020230502        +000000000061429+000000000000000        000000000000000000000000000000+000000000000000+000000000000930+000000000000000+0000000000604990003000001                                                                                                                                                                                                                                                                                                                                                                                                                                                                                                                                                                                                                                                                                                                                                                 907
2407000OTPVHR2X   HR2924070001100072069EURENUKO                                                                 SLAVONSKI BROD                     97552909572399529450160012023052900041000                                                                                                                                                                                                                                                                                                                                                                                                                                                                                                                                                                                                                                                                                                                                                                                                                                         903
20HR2024070001300004848             SZP STROSSMAYEROVA 73, SLAV. BROD                                     STROSSMAYEROVA 73                  35000 SLAVONSKI BROD               2023052920230529   000000000000000+000000000000000+000000000015930HR99                      HR99                      33  rn 002                                                                                                                                                                                IPR 324256529                                                                                                                                                                                                                                                                                                                                                                                                                                                                                                                        905
20HR6024070001300009560             SZP TESLINA 20, SLAVONSKI BROD                                        TESLINA 20                         35000 SLAVONSKI BROD               2023052920230529   000000000000000+000000000000000+000000000015132HR99                      HR99                      33  rn 003                                                                                                                                                                                IPR 324256563                                                                                                                                                                                                                                                                                                                                                                                                                                                                                                                        905
20HR9224070001300005298             SZP RELJKOVIÆEVA 43, SLAV. BROD                                       RELJKOVIÆEVA 43                    35000 SLAVONSKI BROD               2023052920230529   000000000000000+000000000000000+000000000014340HR99                      HR99                      33  rn 004                                                                                                                                                                                IPR 324256570                                                                                                                                                                                                                                                                                                                                                                                                                                                                                                                        905
20HR8524070001300012602             SZP GUNDULIÆEVA 18, SLAVONSKI BROD                                    GUNDULIÆEVA 18                     35000 SLAVONSKI BROD               2023052920230529   000000000000000+000000000000000+000000000013542HR99                      HR99                      33  rn 005                                                                                                                                                                                IPR 324256571                                                                                                                                                                                                                                                                                                                                                                                                                                                                                                                        905
20HR8124070001300005302             SZP JAGIÆEVA 62, SLAVONSKI BROD                                       JAGIÆEVA 62                        35000 SLAVONSKI BROD               2023052920230529   000000000000000+000000000000000+000000000015930HR99                      HR99                      33  rn 006                                                                                                                                                                                IPR 324256575                                                                                                                                                                                                                                                                                                                                                                                                                                                                                                                        905
10HR0923600001102248262             TENIS KLUB BROD                                                                                                                             2023052920230529   000000000000000+000000000000000+000000000010000HR99                      HR0073121783372           33  DONACIJABR ÈLANA 299RANKO SIMIÆ                                                                                                                                                       ZOU 324266402                                                                                                                                                                                                                                                                                                                                                                                                                                                                                                                        905
10HR9323600001101725084             GRABAR DOO                                                                                                                                  2023052920230529   000000000000000+000000000000000+000000000012008HR99                      HR00191                   33  PO RN - OTPREMNICA950-1-1                                                                                                                                                             ZOU 324256591                                                                                                                                                                                                                                                                                                                                                                                                                                                                                                                        905
10HR8610010051739652367             KOMORSKI DOPRINOS                                                                                                                           2023052920230529   000000000000000+000000000000000+000000000012104HR99                      HR6757239952945           33  PREDUJAM KOMORSKOG DOPRINOSA                                                                                                                                                          ZOU 324256008                                                                                                                                                                                                                                                                                                                                                                                                                                                                                                                        905
20HR0841240031320004036             SZP 108. BRIGADE ZNG 4, SLAVONSKI BROD - BRUNO MARTIÆ, DOMAR          TOME SKALICE 9                     SLAVONSKI BROD                     2023052920230529   000000000000000+000000000000000+000000000007171HR99                      HR002023-011              33  RN. 011/1/23                                                                                                                                                                          ZIN 324368185                                                                                                                                                                                                                                                                                                                                                                                                                                                                                                                        905
10HR9124020063204984605             Ranko Simiæ                                                                                                                                 2023052920230529   000000000000000+000000000000000+000000000014350HR99                      HR99                      33  PN OD 3.5.2023                                                                                                                                                                        ZOU 324401927                                                                                                                                                                                                                                                                                                                                                                                                                                                                                                                        905
HR2924070001100072069EURENUKO                                                                 01600020230529        +000000000060499+000000000000000        000000000000000000000000000000+000000000000000+000000000048462+000000000082045+0000000000940820004000010                                                                                                                                                                                                                                                                                                                                                                                                                                                                                                                                                                                                                                                                                                                                                                 907
2407000OTPVHR2X   HR2924070001100072069EURENUKO                                                                 SLAVONSKI BROD                     97552909572399529450170012023053100051000                                                                                                                                                                                                                                                                                                                                                                                                                                                                                                                                                                                                                                                                                                                                                                                                                                         903
20HR6523400091310344317             SZP I.GUNDULIÆA 3                                                     Ul. 108 brigade ZNG 42             Slavonski                          2023053120230531   000000000000000+000000000000000+000000000004781HR0519-2319-564           HR00007-1-3               33  oèitanje vodomjera                                                                                                                                                                    ZIN 324537641                                                                                                                                                                                                                                                                                                                                                                                                                                                                                                                        905
20HR7823400091310368721             SZP F.SUPILA 24                                                       Ul. 108 brigade ZNG 42             Slavonski                          2023053120230531   000000000000000+000000000000000+000000000006374HR0519-2316-564           HR00008-1-23              33  oèitanje vodomjera                                                                                                                                                                    ZIN 324537643                                                                                                                                                                                                                                                                                                                                                                                                                                                                                                                        905
20HR6441240031320000506             ÐURO ÐAKOVIÆ STAN društvo s ograniè                                   ULICA 108 BRIGADE ZNG 42           Slavonski                          2023053120230531   000000000000000+000000000000000+000000000009827HR0519-2340-564           HR002023-010              33  ocitanje vodomjera                                                                                                                                                                    ZIN 324550446                                                                                                                                                                                                                                                                                                                                                                                                                                                                                                                        905
20HR2741240031320000299             ÐURO ÐAKOVIÆ STAN društvo s ograniè                                   ULICA 108 BRIGADE ZNG 42           Slavonski                          2023053120230531   000000000000000+000000000000000+000000000006109HR0519-2322-564           HR00009-1-3               33  ocitanje vodomjera                                                                                                                                                                    ZIN 324550447                                                                                                                                                                                                                                                                                                                                                                                                                                                                                                                        905
HR2924070001100072069EURENUKO                                                                 01700020230531        +000000000094082+000000000000000        000000000000000000000000000000+000000000000000+000000000000000+000000000027091+0000000001211730005000004                                                                                                                                                                                                                                                                                                                                                                                                                                                                                                                                                                                                                                                                                                                                                                 907
2407000OTPVHR2X   HR2924070001100072069EURENUKO                                                                 SLAVONSKI BROD                     97552909572399529450180012023060100061000                                                                                                                                                                                                                                                                                                                                                                                                                                                                                                                                                                                                                                                                                                                                                                                                                                         903
10HR5324070001024070003             OTP banka d.d.                                                        DOMOVINSKOG RATA 61                SPLIT                              2023060120230601   000000000000000+000000000000000+000000000001170HR00163658-0001-2023      HR17500410150405          33  Naknade od 01.05.2023 do 31.05.2023                                                                                                                                                   IPR 324803649                                                                                                                                                                                                                                                                                                                                                                                                                                                                                                                        905
HR2924070001100072069EURENUKO                                                                 01800020230601        +000000000121173+000000000000000        000000000000000000000000000000+000000000000000+000000000001170+000000000000000+0000000001200030006000001                                                                                                                                                                                                                                                                                                                                                                                                                                                                                                                                                                                                                                                                                                                                                                 907
2407000OTPVHR2X   HR2924070001100072069EURENUKO                                                                 SLAVONSKI BROD                     97552909572399529450190012023062700071000                                                                                                                                                                                                                                                                                                                                                                                                                                                                                                                                                                                                                                                                                                                                                                                                                                         903
20HR3923600003216344680             DAMIR GRGIÆ                                                           MATIJE MESIÆA 66                   35000 SLAVONSKI BROD               2023062720230627   000000000000000+000000000000000+000000000007500HR99                      HR002023-013              33  placanje po rn,vodomjer i erm                                                                                                                                                         ZIN 328588935                                                                                                                                                                                                                                                                                                                                                                                                                                                                                                                        905
HR2924070001100072069EURENUKO                                                                 01900020230627        +000000000120003+000000000000000        000000000000000000000000000000+000000000000000+000000000000000+000000000007500+0000000001275030007000001                                                                                                                                                                                                                                                                                                                                                                                                                                                                                                                                                                                                                                                                                                                                                                 907
2407000OTPVHR2X   HR2924070001100072069EURENUKO                                                                 SLAVONSKI BROD                     97552909572399529450200012023063000081000                                                                                                                                                                                                                                                                                                                                                                                                                                                                                                                                                                                                                                                                                                                                                                                                                                         903
10HR9124020063204984605             Ranko Simiæ                                                                                                                                 2023063020230630   000000000000000+000000000000000+000000000033327HR99                      HR99                      33  PN OD 28.6.2023                                                                                                                                                                       ZOU 329074170                                                                                                                                                                                                                                                                                                                                                                                                                                                                                                                        905
HR2924070001100072069EURENUKO                                                                 02000020230630        +000000000127503+000000000000000        000000000000000000000000000000+000000000000000+000000000033327+000000000000000+0000000000941760008000001                                                                                                                                                                                                                                                                                                                                                                                                                                                                                                                                                                                                                                                                                                                                                                 907
2024050300008000038                                                                                                                                                                                                                                                                                                                                                                                                                                                                                                                                                                                                                                                                                                                                                                                                                                                                                                                                                                                                                  909
                                                                                                                                                                                                                                                                                                                                                                                                                                                                                                                                                                                                                                                                                                                                                                                                                                                                                                                                                                                                                                     999
