2407000OTP banka d.d.                                    52508873833100020240503                                                                                                                                                                                                                                                                                                                                                                                                                                                                                                                                                                                                                                                                                                                                                                                                                                                                                                                                                     900
2407000OTPVHR2X   HR2924070001100072069EURENUKO                                                                 SLAVONSKI BROD                     97552909572399529450010012023010100011000                                                                                                                                                                                                                                                                                                                                                                                                                                                                                                                                                                                                                                                                                                                                                                                                                                         903
20HR5324070001024070003             OTP banka d.d.                                                                                                                              2023010120230101   000000000000000+000000000000000+000000000077148                                                    33  KONV STANJA SA          1100072069                                                                                                                                                    URB 3572457084                                                                                                                                                                                                                                                                                                                                                                                                                                                                                                                       905
10HR5324070001024070003             OTP banka d.d.                                                        DOMOVINSKOG RATA 61                SPLIT                              2023010120230101   000000000000000+000000000000000+000000000001544HR00427320-0001-2022      HR17500410150405          33  Naknade od 01.12.2022 do 31.12.2022                                                                                                                                                   IPR 303949257                                                                                                                                                                                                                                                                                                                                                                                                                                                                                                                        905
HR2924070001100072069EURENUKO                                                                 00100020230101        +000000000000000+000000000000000        000000000000000000000000000000+000000000000000+000000000001544+000000000077148+0000000000756040001000002                                                                                                                                                                                                                                                                                                                                                                                                                                                                                                                                                                                                                                                                                                                                                                 907
2407000OTPVHR2X   HR2924070001100072069EURENUKO                                                                 SLAVONSKI BROD                     97552909572399529450020012023010200021000                                                                                                                                                                                                                                                                                                                                                                                                                                                                                                                                                                                                                                                                                                                                                                                                                                         903
20HR5324070001024070003             BARIÈEVIÆ PREDRAG                                                     DOMOBRANSKA 9                      SL. BROD                           2023010220230102   000000000000000+000000000000000+000000000000796HR99                      HR03566-205-20220898      33  OÈITOVANJE INTERNIH VODOMJERA RAZDOBLJE 202102-202201                                                                                       QP100223430003001000052023-01-020005500001IPR 304121591                                                                                                                                                                                                                                                                                                                                                                                                                                                                                                                        905
HR2924070001100072069EURENUKO                                                                 00200020230102        +000000000075604+000000000000000        000000000000000000000000000000+000000000000000+000000000000000+000000000000796+0000000000764000002000001                                                                                                                                                                                                                                                                                                                                                                                                                                                                                                                                                                                                                                                                                                                                                                 907
2407000OTPVHR2X   HR2924070001100072069EURENUKO                                                                 SLAVONSKI BROD                     97552909572399529450030012023011300031000                                                                                                                                                                                                                                                                                                                                                                                                                                                                                                                                                                                                                                                                                                                                                                                                                                         903
20HR8623900010835101005             MATO KUHAÈ                                                            SL BROD DOMOBRANSKA 9                                                 2023011320230113   000000000000000+000000000000000+000000000000796HR99                      HR03990-205-20220979      33  OÈITANJE INTERNIH VODOMJERA ZA RAZD202102-+202201                                                                                                                                     ZIN 305660478                                                                                                                                                                                                                                                                                                                                                                                                                                                                                                                        905
HR2924070001100072069EURENUKO                                                                 00300020230113        +000000000076400+000000000000000        000000000000000000000000000000+000000000000000+000000000000000+000000000000796+0000000000771960003000001                                                                                                                                                                                                                                                                                                                                                                                                                                                                                                                                                                                                                                                                                                                                                                 907
2407000OTPVHR2X   HR2924070001100072069EURENUKO                                                                 SLAVONSKI BROD                     97552909572399529450040012023011600041000                                                                                                                                                                                                                                                                                                                                                                                                                                                                                                                                                                                                                                                                                                                                                                                                                                         903
20HR5324070001024070003             BILJANA BEGIÆ                                                         NASEUE SLAVONIJA 1 2/3             SLAVONSKI BROD                     2023011620230116   000000000000000+000000000000000+000000000000929HR99                      HR03833-205-20221070      33  oèitanje internih vodomjera razdoblje 202106 - 202112                                                                                       QP100183430003001002452023-01-160001100001IPR 305758424                                                                                                                                                                                                                                                                                                                                                                                                                                                                                                                        905
HR2924070001100072069EURENUKO                                                                 00400020230116        +000000000077196+000000000000000        000000000000000000000000000000+000000000000000+000000000000000+000000000000929+0000000000781250004000001                                                                                                                                                                                                                                                                                                                                                                                                                                                                                                                                                                                                                                                                                                                                                                 907
2407000OTPVHR2X   HR2924070001100072069EURENUKO                                                                 SLAVONSKI BROD                     97552909572399529450050012023013000051000                                                                                                                                                                                                                                                                                                                                                                                                                                                                                                                                                                                                                                                                                                                                                                                                                                         903
10HR5324070001024070003             OTP banka d.d.                                                        DOMOVINSKOG RATA 61                SPLIT                              2023013020230130   000000000000000+000000000000000+000000000001261HR00307572934-01          HR175001114711-30012023   33  POS KUPOVINA/27.01/EUR/12,61PBZTNARODNENOVINE,SLAVONSKI BROBr.kart.xx8270                                                                                                             IPR 307572934                                                                                                                                                                                                                                                                                                                                                                                                                                                                                                                        905
HR2924070001100072069EURENUKO                                                                 00500020230130        +000000000078125+000000000000000        000000000000000000000000000000+000000000000000+000000000001261+000000000000000+0000000000768640005000001                                                                                                                                                                                                                                                                                                                                                                                                                                                                                                                                                                                                                                                                                                                                                                 907
2407000OTPVHR2X   HR2924070001100072069EURENUKO                                                                 SLAVONSKI BROD                     97552909572399529450060012023020100061000                                                                                                                                                                                                                                                                                                                                                                                                                                                                                                                                                                                                                                                                                                                                                                                                                                         903
10HR5324070001024070003             OTP banka d.d.                                                        DOMOVINSKOG RATA 61                SPLIT                              2023020120230201   000000000000000+000000000000000+000000000000946HR003215-0001-2023        HR17500410150405          33  Naknade od 01.01.2023 do 31.01.2023                                                                                                                                                   IPR 307873811                                                                                                                                                                                                                                                                                                                                                                                                                                                                                                                        905
HR2924070001100072069EURENUKO                                                                 00600020230201        +000000000076864+000000000000000        000000000000000000000000000000+000000000000000+000000000000946+000000000000000+0000000000759180006000001                                                                                                                                                                                                                                                                                                                                                                                                                                                                                                                                                                                                                                                                                                                                                                 907
2407000OTPVHR2X   HR2924070001100072069EURENUKO                                                                 SLAVONSKI BROD                     97552909572399529450070012023020600071000                                                                                                                                                                                                                                                                                                                                                                                                                                                                                                                                                                                                                                                                                                                                                                                                                                         903
20HR6325000093203638781             ZRINKA KATAVIÆ                                                        SLAVONSKI BROD BRKIÆA PUT 25       N/A                                2023020620230206   000000000000000+000000000000000+000000000000664HR99                      HR03833-205-20221061      33  012021-052021                                                                                                                                                                         ZIN 308315984                                                                                                                                                                                                                                                                                                                                                                                                                                                                                                                        905
HR2924070001100072069EURENUKO                                                                 00700020230206        +000000000075918+000000000000000        000000000000000000000000000000+000000000000000+000000000000000+000000000000664+0000000000765820007000001                                                                                                                                                                                                                                                                                                                                                                                                                                                                                                                                                                                                                                                                                                                                                                 907
2407000OTPVHR2X   HR2924070001100072069EURENUKO                                                                 SLAVONSKI BROD                     97552909572399529450080012023021300081000                                                                                                                                                                                                                                                                                                                                                                                                                                                                                                                                                                                                                                                                                                                                                                                                                                         903
20HR5324070001024070003             MARIO RADOVANOVIÆ                                                     I. GUNDULIÆA  1C                   35000  SLAV.BROD                   2023021320230213   000000000000000+000000000000000+000000000007500HR99                      HR002023-01               33  PLAÆANJE  PO  RAÈUNU  VODOMJER   I  ERM                                                                                                     QP100223430003001000052023-02-130002000001IPR 309331259                                                                                                                                                                                                                                                                                                                                                                                                                                                                                                                        905
HR2924070001100072069EURENUKO                                                                 00800020230213        +000000000076582+000000000000000        000000000000000000000000000000+000000000000000+000000000000000+000000000007500+0000000000840820008000001                                                                                                                                                                                                                                                                                                                                                                                                                                                                                                                                                                                                                                                                                                                                                                 907
2407000OTPVHR2X   HR2924070001100072069EURENUKO                                                                 SLAVONSKI BROD                     97552909572399529450090012023022300091000                                                                                                                                                                                                                                                                                                                                                                                                                                                                                                                                                                                                                                                                                                                                                                                                                                         903
10HR3324070001100112543             CROATIA OSIGURANJE                                                                                                                          2023022320230223   000000000000000+000000000000000+000000000010668HR99                      HR0079426-389791009241    33  PREMIJA PO RAÈUNU                                                                                                                                                                     IPR 310934109                                                                                                                                                                                                                                                                                                                                                                                                                                                                                                                        905
HR2924070001100072069EURENUKO                                                                 00900020230223        +000000000084082+000000000000000        000000000000000000000000000000+000000000000000+000000000010668+000000000000000+0000000000734140009000001                                                                                                                                                                                                                                                                                                                                                                                                                                                                                                                                                                                                                                                                                                                                                                 907
2407000OTPVHR2X   HR2924070001100072069EURENUKO                                                                 SLAVONSKI BROD                     97552909572399529450100012023030100101000                                                                                                                                                                                                                                                                                                                                                                                                                                                                                                                                                                                                                                                                                                                                                                                                                                         903
10HR5324070001024070003             OTP banka d.d.                                                        DOMOVINSKOG RATA 61                SPLIT                              2023030120230301   000000000000000+000000000000000+000000000000966HR0042874-0001-2023       HR17500410150405          33  Naknade od 01.02.2023 do 28.02.2023                                                                                                                                                   IPR 311738209                                                                                                                                                                                                                                                                                                                                                                                                                                                                                                                        905
HR2924070001100072069EURENUKO                                                                 01000020230301        +000000000073414+000000000000000        000000000000000000000000000000+000000000000000+000000000000966+000000000000000+0000000000724480010000001                                                                                                                                                                                                                                                                                                                                                                                                                                                                                                                                                                                                                                                                                                                                                                 907
2407000OTPVHR2X   HR2924070001100072069EURENUKO                                                                 SLAVONSKI BROD                     97552909572399529450110012023031300111000                                                                                                                                                                                                                                                                                                                                                                                                                                                                                                                                                                                                                                                                                                                                                                                                                                         903
10HR0624840081100681260             posredovanje vidoviæ                                                                                                                        2023031320230313   000000000000000+000000000000000+000000000001660HR99                      HR001156                  33  po rn 1156-posl3-1 od 21.12.2022                                                                                                                                                      ZOU 313150357                                                                                                                                                                                                                                                                                                                                                                                                                                                                                                                        905
HR2924070001100072069EURENUKO                                                                 01100020230313        +000000000072448+000000000000000        000000000000000000000000000000+000000000000000+000000000001660+000000000000000+0000000000707880011000001                                                                                                                                                                                                                                                                                                                                                                                                                                                                                                                                                                                                                                                                                                                                                                 907
2407000OTPVHR2X   HR2924070001100072069EURENUKO                                                                 SLAVONSKI BROD                     97552909572399529450120012023032100121000                                                                                                                                                                                                                                                                                                                                                                                                                                                                                                                                                                                                                                                                                                                                                                                                                                         903
10HR6423600001102788435             IREKS AROMA  D.O.O.                                                   TREŠNJEVKA 24                      JASTREBARSKO                       2023032120230321   000000000000000+000000000000000+000000000006750HR99                      HR002023-000723           33  PO PREDRAÈUNU 723                                                                                                                                                                     ZOU 314690316                                                                                                                                                                                                                                                                                                                                                                                                                                                                                                                        905
HR2924070001100072069EURENUKO                                                                 01200020230321        +000000000070788+000000000000000        000000000000000000000000000000+000000000000000+000000000006750+000000000000000+0000000000640380012000001                                                                                                                                                                                                                                                                                                                                                                                                                                                                                                                                                                                                                                                                                                                                                                 907
2024050300012000039                                                                                                                                                                                                                                                                                                                                                                                                                                                                                                                                                                                                                                                                                                                                                                                                                                                                                                                                                                                                                  909
                                                                                                                                                                                                                                                                                                                                                                                                                                                                                                                                                                                                                                                                                                                                                                                                                                                                                                                                                                                                                                     999
