2407000OTP banka d.d.                                    52508873833100020240503                                                                                                                                                                                                                                                                                                                                                                                                                                                                                                                                                                                                                                                                                                                                                                                                                                                                                                                                                     900
2407000OTPVHR2X   HR2924070001100072069HRKENUKO                                                                 SLAVONSKI BROD                     97552909572399529450010012022010300011000                                                                                                                                                                                                                                                                                                                                                                                                                                                                                                                                                                                                                                                                                                                                                                                                                                         903
10HR5324070001024070003             OTP banka d.d.                                                        DOMOVINSKOG RATA 61                SPLIT                              2022010320220103   000000000000000+000000000000000+000000000009130HR00407271-0001-2021      HR17500410150405          33  Naknade od 01.12.2021 do 31.12.2021                                                                                                                                                   IPR 255040482                                                                                                                                                                                                                                                                                                                                                                                                                                                                                                                        905
HR2924070001100072069HRKENUKO                                                                 00100020220103        +000000000275089+000000000000000        000000000000000000000000000000+000000000000000+000000000009130+000000000000000+0000000002659590001000001                                                                                                                                                                                                                                                                                                                                                                                                                                                                                                                                                                                                                                                                                                                                                                 907
2407000OTPVHR2X   HR2924070001100072069HRKENUKO                                                                 SLAVONSKI BROD                     97552909572399529450020012022011200021000                                                                                                                                                                                                                                                                                                                                                                                                                                                                                                                                                                                                                                                                                                                                                                                                                                         903
20HR6423400091000000013             DAVORKA VIDAKOVIÆ                                                     RADNIÈKA CESTA 50                  ZAGREB                             2022011220220112   000000000000000+000000000000000+000000000012000HR0541874-075938-302775   HR03817-205-20210558      33  oèitan je internih vodom jera razdo                                                                                                                                                   ZIN 256110703                                                                                                                                                                                                                                                                                                                                                                                                                                                                                                                        905
HR2924070001100072069HRKENUKO                                                                 00200020220112        +000000000265959+000000000000000        000000000000000000000000000000+000000000000000+000000000000000+000000000012000+0000000002779590002000001                                                                                                                                                                                                                                                                                                                                                                                                                                                                                                                                                                                                                                                                                                                                                                 907
2407000OTPVHR2X   HR2924070001100072069HRKENUKO                                                                 SLAVONSKI BROD                     97552909572399529450030012022011800031000                                                                                                                                                                                                                                                                                                                                                                                                                                                                                                                                                                                                                                                                                                                                                                                                                                         903
20HR6423400091000000013             MIJO PEŠIÆ                                                            RADNIÈKA CESTA 50                  ZAGREB                             2022011820220118   000000000000000+000000000000000+000000000006000HR0541874-075938-736962   HR03485-205-20210604      33  oèitan je internih vodom jera razdo                                                                                                                                                   ZIN 257074542                                                                                                                                                                                                                                                                                                                                                                                                                                                                                                                        905
HR2924070001100072069HRKENUKO                                                                 00300020220118        +000000000277959+000000000000000        000000000000000000000000000000+000000000000000+000000000000000+000000000006000+0000000002839590003000001                                                                                                                                                                                                                                                                                                                                                                                                                                                                                                                                                                                                                                                                                                                                                                 907
2407000OTPVHR2X   HR2924070001100072069HRKENUKO                                                                 SLAVONSKI BROD                     97552909572399529450040012022020100041000                                                                                                                                                                                                                                                                                                                                                                                                                                                                                                                                                                                                                                                                                                                                                                                                                                         903
10HR5324070001024070003             OTP banka d.d.                                                        DOMOVINSKOG RATA 61                SPLIT                              2022020120220201   000000000000000+000000000000000+000000000007180HR003431-0001-2022        HR17500410150405          33  Naknade od 01.01.2022 do 31.01.2022                                                                                                                                                   IPR 258538440                                                                                                                                                                                                                                                                                                                                                                                                                                                                                                                        905
HR2924070001100072069HRKENUKO                                                                 00400020220201        +000000000283959+000000000000000        000000000000000000000000000000+000000000000000+000000000007180+000000000000000+0000000002767790004000001                                                                                                                                                                                                                                                                                                                                                                                                                                                                                                                                                                                                                                                                                                                                                                 907
2407000OTPVHR2X   HR2924070001100072069HRKENUKO                                                                 SLAVONSKI BROD                     97552909572399529450050012022022100051000                                                                                                                                                                                                                                                                                                                                                                                                                                                                                                                                                                                                                                                                                                                                                                                                                                         903
10HR3324070001100112543             CROSIG                                                                                                                                      2022022120220221   000000000000000+000000000000000+000000000080400HR99                      HR0079426-389791009241    33  UPLATA PREMIJEUPLATA PREMIJE                                                                                                                                                          IPR 261049410                                                                                                                                                                                                                                                                                                                                                                                                                                                                                                                        905
HR2924070001100072069HRKENUKO                                                                 00500020220221        +000000000276779+000000000000000        000000000000000000000000000000+000000000000000+000000000080400+000000000000000+0000000001963790005000001                                                                                                                                                                                                                                                                                                                                                                                                                                                                                                                                                                                                                                                                                                                                                                 907
2407000OTPVHR2X   HR2924070001100072069HRKENUKO                                                                 SLAVONSKI BROD                     97552909572399529450060012022030100061000                                                                                                                                                                                                                                                                                                                                                                                                                                                                                                                                                                                                                                                                                                                                                                                                                                         903
10HR8610010051739652367             KOMORSKI DOPRINOS                                                                                                                           2022030120220301   000000000000000+000000000000000+000000000091200HR99                      HR6757239952945           33  PREDUJAM KOMORSKOG DOPRINOSA                                                                                                                                                          ZOU 262123593                                                                                                                                                                                                                                                                                                                                                                                                                                                                                                                        905
10HR5324070001024070003             OTP banka d.d.                                                        DOMOVINSKOG RATA 61                SPLIT                              2022030120220301   000000000000000+000000000000000+000000000007125HR0040277-0001-2022       HR17500410150405          33  Naknade od 01.02.2022 do 28.02.2022                                                                                                                                                   IPR 262178083                                                                                                                                                                                                                                                                                                                                                                                                                                                                                                                        905
HR2924070001100072069HRKENUKO                                                                 00600020220301        +000000000196379+000000000000000        000000000000000000000000000000+000000000000000+000000000098325+000000000000000+0000000000980540006000002                                                                                                                                                                                                                                                                                                                                                                                                                                                                                                                                                                                                                                                                                                                                                                 907
2024050300006000021                                                                                                                                                                                                                                                                                                                                                                                                                                                                                                                                                                                                                                                                                                                                                                                                                                                                                                                                                                                                                  909
                                                                                                                                                                                                                                                                                                                                                                                                                                                                                                                                                                                                                                                                                                                                                                                                                                                                                                                                                                                                                                     999
