2407000OTP banka d.d.                                    52508873833100020240324                                                                                                                                                                                                                                                                                                                                                                                                                                                                                                                                                                                                                                                                                                                                                                                                                                                                                                                                                     900
2407000OTPVHR2X   HR3133083745051110951EURCROAT                                                                 SLAVONSKI BROD                     97552909572399529450320012023081800011000                                                                                                                                                                                                                                                                                                                                                                                                                                                                                                                                                                                                                                                                                                                                                                                                                                         903
20HR6423400091000000013             HELENA HORVAT                                                         RADNI KA CESTA 30                  ZAGREB                             2023081820230818   000000000000000+000000000000000+000000000001593HR0541874-075938-513669   HR03230-205-2023024       33  o itan je internih vodom jera razdo                                                                                                                                                   ZIN 336688356                                                                                                                                                                                                                                                                                                                                                                                                                                                                                                                        905
20HR6423400091000000013             DANIJELA MATI                                                         RADNI KA CESTA 30                  ZAGREB                             2023081820230818   000000000000000+000000000000000+000000000001195HR0541874-075938-622120   HR03450-205-2023032       33  o itan je internih vodom jera razdo                                                                                                                                                   ZIN 336708865                                                                                                                                                                                                                                                                                                                                                                                                                                                                                                                        905
HR3133083745051110951EURCROAT                                                                 03200020230818        +000000000130398+000000000000000        000000000000000000000000000000+000000000000000+000000000000000+000000000002788+0000000001331860001000002                                                                                                                                                                                                                                                                                                                                                                                                                                                                                                                                                                                                                                                                                                                                                                 907
2024032400001000006                                                                                                                                                                                                                                                                                                                                                                                                                                                                                                                                                                                                                                                                                                                                                                                                                                                                                                                                                                                                                  909
                                                                                                                                                                                                                                                                                                                                                                                                                                                                                                                                                                                                                                                                                                                                                                                                                                                                                                                                                                                                                                     999
