2407000OTP banka d.d.                                    52508873833100020240324                                                                                                                                                                                                                                                                                                                                                                                                                                                                                                                                                                                                                                                                                                                                                                                                                                                                                                                                                     900
2407000OTPVHR2X   HR3133083745051110951EURCROAT                                                                 SLAVONSKI BROD                     97552909572399529450290012023081400011000                                                                                                                                                                                                                                                                                                                                                                                                                                                                                                                                                                                                                                                                                                                                                                                                                                         903
20HR3723900010835208005             HELENA OBRADOVI                                                       35000 SLAVONSKI BROD NASELJE SLAVONIJA I 5/1                          2023081420230814   000000000000000+000000000000000+000000000001593HR99                      HR0335-205-2023024        33  O ITANJE                                                                                                                                                                              ZIN 336047837                                                                                                                                                                                                                                                                                                                                                                                                                                                                                                                        905
20HR3923900010835000001             HELENA MARKOVI                                                        35000 SLAVONSKI BROD NASELJE SLAVONIJA I 4 IV                         2023081420230814   000000000000000+000000000000000+000000000001593HR99                      HR03400-205-2023024       33  O ITANJE INT VODOMJERA                                                                                                                                                                ZIN 336048601                                                                                                                                                                                                                                                                                                                                                                                                                                                                                                                        905
HR3133083745051110951EURCROAT                                                                 02900020230814        +000000000122831+000000000000000        000000000000000000000000000000+000000000000000+000000000000000+000000000003186+0000000001260170001000002                                                                                                                                                                                                                                                                                                                                                                                                                                                                                                                                                                                                                                                                                                                                                                 907
2024032400001000006                                                                                                                                                                                                                                                                                                                                                                                                                                                                                                                                                                                                                                                                                                                                                                                                                                                                                                                                                                                                                  909
                                                                                                                                                                                                                                                                                                                                                                                                                                                                                                                                                                                                                                                                                                                                                                                                                                                                                                                                                                                                                                     999
